{
  "contractName": "Brazukas",
  "abi": [
    {
      "inputs": [],
      "stateMutability": "nonpayable",
      "type": "constructor"
    },
    {
      "anonymous": false,
      "inputs": [
        {
          "indexed": true,
          "internalType": "address",
          "name": "from",
          "type": "address"
        },
        {
          "indexed": true,
          "internalType": "address",
          "name": "to",
          "type": "address"
        },
        {
          "indexed": true,
          "internalType": "uint256",
          "name": "tokenId",
          "type": "uint256"
        }
      ],
      "name": "Transfer",
      "type": "event"
    },
    {
      "inputs": [
        {
          "internalType": "uint256",
          "name": "",
          "type": "uint256"
        }
      ],
      "name": "BrazukasArray",
      "outputs": [
        {
          "internalType": "string",
          "name": "",
          "type": "string"
        }
      ],
      "stateMutability": "view",
      "type": "function",
      "constant": true
    },
    {
      "inputs": [
        {
          "internalType": "address",
          "name": "_owner",
          "type": "address"
        }
      ],
      "name": "balanceOf",
      "outputs": [
        {
          "internalType": "uint256",
          "name": "",
          "type": "uint256"
        }
      ],
      "stateMutability": "view",
      "type": "function",
      "constant": true
    },
    {
      "inputs": [],
      "name": "name",
      "outputs": [
        {
          "internalType": "string",
          "name": "",
          "type": "string"
        }
      ],
      "stateMutability": "view",
      "type": "function",
      "constant": true
    },
    {
      "inputs": [
        {
          "internalType": "uint256",
          "name": "_id",
          "type": "uint256"
        }
      ],
      "name": "ownerOf",
      "outputs": [
        {
          "internalType": "address",
          "name": "",
          "type": "address"
        }
      ],
      "stateMutability": "view",
      "type": "function",
      "constant": true
    },
    {
      "inputs": [],
      "name": "symbol",
      "outputs": [
        {
          "internalType": "string",
          "name": "",
          "type": "string"
        }
      ],
      "stateMutability": "view",
      "type": "function",
      "constant": true
    },
    {
      "inputs": [
        {
          "internalType": "string",
          "name": "_brazuka",
          "type": "string"
        }
      ],
      "name": "mint",
      "outputs": [],
      "stateMutability": "nonpayable",
      "type": "function"
    }
  ],
  "bytecode": "0x60806040523480156200001157600080fd5b506040518060400160405280600881526020017f4272617a756b61730000000000000000000000000000000000000000000000008152506040518060400160405280600481526020017f425a4b53000000000000000000000000000000000000000000000000000000008152508181816000908051906020019062000098929190620000bc565b508060019080519060200190620000b1929190620000bc565b5050505050620001d1565b828054620000ca906200019b565b90600052602060002090601f016020900481019282620000ee57600085556200013a565b82601f106200010957805160ff19168380011785556200013a565b828001600101855582156200013a579182015b82811115620001395782518255916020019190600101906200011c565b5b5090506200014991906200014d565b5090565b5b80821115620001685760008160009055506001016200014e565b5090565b7f4e487b7100000000000000000000000000000000000000000000000000000000600052602260045260246000fd5b60006002820490506001821680620001b457607f821691505b60208210811415620001cb57620001ca6200016c565b5b50919050565b610f3580620001e16000396000f3fe608060405234801561001057600080fd5b50600436106100625760003560e01c806306fdde03146100675780632f55ab79146100855780636352211e146100b557806370a08231146100e557806395d89b4114610115578063d85d3d2714610133575b600080fd5b61006f61014f565b60405161007c91906108c6565b60405180910390f35b61009f600480360381019061009a9190610932565b6101e1565b6040516100ac91906108c6565b60405180910390f35b6100cf60048036038101906100ca9190610932565b61028d565b6040516100dc91906109a0565b60405180910390f35b6100ff60048036038101906100fa91906109e7565b61033f565b60405161010c9190610a23565b60405180910390f35b61011d6103c1565b60405161012a91906108c6565b60405180910390f35b61014d60048036038101906101489190610b73565b610453565b005b60606000805461015e90610beb565b80601f016020809104026020016040519081016040528092919081815260200182805461018a90610beb565b80156101d75780601f106101ac576101008083540402835291602001916101d7565b820191906000526020600020905b8154815290600101906020018083116101ba57829003601f168201915b5050505050905090565b600481815481106101f157600080fd5b90600052602060002001600091509050805461020c90610beb565b80601f016020809104026020016040519081016040528092919081815260200182805461023890610beb565b80156102855780601f1061025a57610100808354040283529160200191610285565b820191906000526020600020905b81548152906001019060200180831161026857829003601f168201915b505050505081565b6000806002600084815260200190815260200160002060009054906101000a900473ffffffffffffffffffffffffffffffffffffffff169050600073ffffffffffffffffffffffffffffffffffffffff168173ffffffffffffffffffffffffffffffffffffffff161415610336576040517f08c379a000000000000000000000000000000000000000000000000000000000815260040161032d90610c8f565b60405180910390fd5b80915050919050565b60008073ffffffffffffffffffffffffffffffffffffffff168273ffffffffffffffffffffffffffffffffffffffff16141561037a57600080fd5b600360008373ffffffffffffffffffffffffffffffffffffffff1673ffffffffffffffffffffffffffffffffffffffff168152602001908152602001600020549050919050565b6060600180546103d090610beb565b80601f01602080910402602001604051908101604052809291908181526020018280546103fc90610beb565b80156104495780601f1061041e57610100808354040283529160200191610449565b820191906000526020600020905b81548152906001019060200180831161042c57829003601f168201915b5050505050905090565b6005816040516104639190610ceb565b908152602001604051809103902060009054906101000a900460ff16156104bf576040517f08c379a00000000000000000000000000000000000000000000000000000000081526004016104b690610d4e565b60405180910390fd5b6004819080600181540180825580915050600190039060005260206000200160009091909190915090805190602001906104fa92919061078a565b506000600160048054905061050f9190610d9d565b905061051b3382610556565b600160058360405161052d9190610ceb565b908152602001604051809103902060006101000a81548160ff0219169083151502179055505050565b600073ffffffffffffffffffffffffffffffffffffffff168273ffffffffffffffffffffffffffffffffffffffff1614156105c6576040517f08c379a00000000000000000000000000000000000000000000000000000000081526004016105bd90610e1d565b60405180910390fd5b6105cf81610718565b1561060f576040517f08c379a000000000000000000000000000000000000000000000000000000000815260040161060690610e89565b60405180910390fd5b816002600083815260200190815260200160002060006101000a81548173ffffffffffffffffffffffffffffffffffffffff021916908373ffffffffffffffffffffffffffffffffffffffff1602179055506001600360008473ffffffffffffffffffffffffffffffffffffffff1673ffffffffffffffffffffffffffffffffffffffff16815260200190815260200160002060008282546106b19190610ea9565b92505081905550808273ffffffffffffffffffffffffffffffffffffffff16600073ffffffffffffffffffffffffffffffffffffffff167fddf252ad1be2c89b69c2b068fc378daa952ba7f163c4a11628f55a4df523b3ef60405160405180910390a45050565b6000806002600084815260200190815260200160002060009054906101000a900473ffffffffffffffffffffffffffffffffffffffff169050600073ffffffffffffffffffffffffffffffffffffffff168173ffffffffffffffffffffffffffffffffffffffff161415915050919050565b82805461079690610beb565b90600052602060002090601f0160209004810192826107b857600085556107ff565b82601f106107d157805160ff19168380011785556107ff565b828001600101855582156107ff579182015b828111156107fe5782518255916020019190600101906107e3565b5b50905061080c9190610810565b5090565b5b80821115610829576000816000905550600101610811565b5090565b600081519050919050565b600082825260208201905092915050565b60005b8381101561086757808201518184015260208101905061084c565b83811115610876576000848401525b50505050565b6000601f19601f8301169050919050565b60006108988261082d565b6108a28185610838565b93506108b2818560208601610849565b6108bb8161087c565b840191505092915050565b600060208201905081810360008301526108e0818461088d565b905092915050565b6000604051905090565b600080fd5b600080fd5b6000819050919050565b61090f816108fc565b811461091a57600080fd5b50565b60008135905061092c81610906565b92915050565b600060208284031215610948576109476108f2565b5b60006109568482850161091d565b91505092915050565b600073ffffffffffffffffffffffffffffffffffffffff82169050919050565b600061098a8261095f565b9050919050565b61099a8161097f565b82525050565b60006020820190506109b56000830184610991565b92915050565b6109c48161097f565b81146109cf57600080fd5b50565b6000813590506109e1816109bb565b92915050565b6000602082840312156109fd576109fc6108f2565b5b6000610a0b848285016109d2565b91505092915050565b610a1d816108fc565b82525050565b6000602082019050610a386000830184610a14565b92915050565b600080fd5b600080fd5b7f4e487b7100000000000000000000000000000000000000000000000000000000600052604160045260246000fd5b610a808261087c565b810181811067ffffffffffffffff82111715610a9f57610a9e610a48565b5b80604052505050565b6000610ab26108e8565b9050610abe8282610a77565b919050565b600067ffffffffffffffff821115610ade57610add610a48565b5b610ae78261087c565b9050602081019050919050565b82818337600083830152505050565b6000610b16610b1184610ac3565b610aa8565b905082815260208101848484011115610b3257610b31610a43565b5b610b3d848285610af4565b509392505050565b600082601f830112610b5a57610b59610a3e565b5b8135610b6a848260208601610b03565b91505092915050565b600060208284031215610b8957610b886108f2565b5b600082013567ffffffffffffffff811115610ba757610ba66108f7565b5b610bb384828501610b45565b91505092915050565b7f4e487b7100000000000000000000000000000000000000000000000000000000600052602260045260246000fd5b60006002820490506001821680610c0357607f821691505b60208210811415610c1757610c16610bbc565b5b50919050565b7f4552433732313a206f776e657220717565727920666f72206e6f6e2d6578697360008201527f74696e6720746f6b656e00000000000000000000000000000000000000000000602082015250565b6000610c79602a83610838565b9150610c8482610c1d565b604082019050919050565b60006020820190508181036000830152610ca881610c6c565b9050919050565b600081905092915050565b6000610cc58261082d565b610ccf8185610caf565b9350610cdf818560208601610849565b80840191505092915050565b6000610cf78284610cba565b915081905092915050565b7f4572726f72202d204272617a756b6120616c7265616479206578697374730000600082015250565b6000610d38601e83610838565b9150610d4382610d02565b602082019050919050565b60006020820190508181036000830152610d6781610d2b565b9050919050565b7f4e487b7100000000000000000000000000000000000000000000000000000000600052601160045260246000fd5b6000610da8826108fc565b9150610db3836108fc565b925082821015610dc657610dc5610d6e565b5b828203905092915050565b7f4552433732313a206d696e74696e6720746865207a65726f2061646472657373600082015250565b6000610e07602083610838565b9150610e1282610dd1565b602082019050919050565b60006020820190508181036000830152610e3681610dfa565b9050919050565b7f4552433732313a20746f6b656e20616c7265616479206d696e74656400000000600082015250565b6000610e73601c83610838565b9150610e7e82610e3d565b602082019050919050565b60006020820190508181036000830152610ea281610e66565b9050919050565b6000610eb4826108fc565b9150610ebf836108fc565b9250827fffffffffffffffffffffffffffffffffffffffffffffffffffffffffffffffff03821115610ef457610ef3610d6e565b5b82820190509291505056fea2646970667358221220fd3454cc967c241616c24299642c4fd780794cee84eb85a89c258b7d7fcea59164736f6c634300080a0033",
  "immutableReferences": {},
  "source": "// SPDX-License-Identifier: MIT\npragma solidity ^0.8.9;\n\nimport \"./ERC721Connector.sol\";\n\ncontract Brazukas is ERC721Connector {\n    string[] public BrazukasArray;\n\n    mapping(string => bool) _brazukaExists;\n\n    function mint(string memory _brazuka) public {\n        require(!_brazukaExists[_brazuka], \"Error - Brazuka already exists\");\n\n        BrazukasArray.push(_brazuka);\n        uint256 _id = BrazukasArray.length - 1;\n\n        _mint(msg.sender, _id);\n\n        _brazukaExists[_brazuka] = true;\n    }\n\n    constructor() ERC721Connector(\"Brazukas\", \"BZKS\") {}\n}\n",
  "sourcePath": "/Users/gabriel/Documents/Git/nft-marketplace/src/contracts/Brazukas.sol",
  "compiler": {
    "name": "solc",
    "version": "0.8.10+commit.fc410830.Emscripten.clang"
  },
  "schemaVersion": "3.4.3",
  "updatedAt": "2021-11-25T16:32:16.219Z",
  "networkType": "ethereum",
  "devdoc": {
    "kind": "dev",
    "methods": {},
    "version": 1
  },
  "userdoc": {
    "kind": "user",
    "methods": {},
    "version": 1
  }
}