{
  "contractName": "Brazukas",
  "abi": [
    {
      "inputs": [],
      "stateMutability": "nonpayable",
      "type": "constructor"
    },
    {
      "anonymous": false,
      "inputs": [
        {
          "indexed": true,
          "internalType": "address",
          "name": "from",
          "type": "address"
        },
        {
          "indexed": true,
          "internalType": "address",
          "name": "to",
          "type": "address"
        },
        {
          "indexed": true,
          "internalType": "uint256",
          "name": "tokenId",
          "type": "uint256"
        }
      ],
      "name": "Transfer",
      "type": "event"
    },
    {
      "inputs": [
        {
          "internalType": "uint256",
          "name": "",
          "type": "uint256"
        }
      ],
      "name": "BrazukasArray",
      "outputs": [
        {
          "internalType": "string",
          "name": "",
          "type": "string"
        }
      ],
      "stateMutability": "view",
      "type": "function",
      "constant": true
    },
    {
      "inputs": [
        {
          "internalType": "address",
          "name": "_owner",
          "type": "address"
        }
      ],
      "name": "balanceOf",
      "outputs": [
        {
          "internalType": "uint256",
          "name": "",
          "type": "uint256"
        }
      ],
      "stateMutability": "view",
      "type": "function",
      "constant": true
    },
    {
      "inputs": [],
      "name": "name",
      "outputs": [
        {
          "internalType": "string",
          "name": "",
          "type": "string"
        }
      ],
      "stateMutability": "view",
      "type": "function",
      "constant": true
    },
    {
      "inputs": [
        {
          "internalType": "uint256",
          "name": "_id",
          "type": "uint256"
        }
      ],
      "name": "ownerOf",
      "outputs": [
        {
          "internalType": "address",
          "name": "",
          "type": "address"
        }
      ],
      "stateMutability": "view",
      "type": "function",
      "constant": true
    },
    {
      "inputs": [],
      "name": "symbol",
      "outputs": [
        {
          "internalType": "string",
          "name": "",
          "type": "string"
        }
      ],
      "stateMutability": "view",
      "type": "function",
      "constant": true
    },
    {
      "inputs": [],
      "name": "totalSupply",
      "outputs": [
        {
          "internalType": "uint256",
          "name": "",
          "type": "uint256"
        }
      ],
      "stateMutability": "view",
      "type": "function",
      "constant": true
    },
    {
      "inputs": [
        {
          "internalType": "string",
          "name": "_brazuka",
          "type": "string"
        }
      ],
      "name": "mint",
      "outputs": [],
      "stateMutability": "nonpayable",
      "type": "function"
    }
  ],
  "bytecode": "0x60806040523480156200001157600080fd5b506040518060400160405280600881526020017f4272617a756b61730000000000000000000000000000000000000000000000008152506040518060400160405280600481526020017f425a4b53000000000000000000000000000000000000000000000000000000008152508181816000908051906020019062000098929190620000bc565b508060019080519060200190620000b1929190620000bc565b5050505050620001d1565b828054620000ca906200019b565b90600052602060002090601f016020900481019282620000ee57600085556200013a565b82601f106200010957805160ff19168380011785556200013a565b828001600101855582156200013a579182015b82811115620001395782518255916020019190600101906200011c565b5b5090506200014991906200014d565b5090565b5b80821115620001685760008160009055506001016200014e565b5090565b7f4e487b7100000000000000000000000000000000000000000000000000000000600052602260045260246000fd5b60006002820490506001821680620001b457607f821691505b60208210811415620001cb57620001ca6200016c565b5b50919050565b610fbe80620001e16000396000f3fe608060405234801561001057600080fd5b506004361061007d5760003560e01c80636352211e1161005b5780636352211e146100ee57806370a082311461011e57806395d89b411461014e578063d85d3d271461016c5761007d565b806306fdde031461008257806318160ddd146100a05780632f55ab79146100be575b600080fd5b61008a610188565b604051610097919061094f565b60405180910390f35b6100a861021a565b6040516100b5919061098a565b60405180910390f35b6100d860048036038101906100d391906109e5565b610227565b6040516100e5919061094f565b60405180910390f35b610108600480360381019061010391906109e5565b6102d3565b6040516101159190610a53565b60405180910390f35b61013860048036038101906101339190610a9a565b610385565b604051610145919061098a565b60405180910390f35b610156610407565b604051610163919061094f565b60405180910390f35b61018660048036038101906101819190610bfc565b610499565b005b60606000805461019790610c74565b80601f01602080910402602001604051908101604052809291908181526020018280546101c390610c74565b80156102105780601f106101e557610100808354040283529160200191610210565b820191906000526020600020905b8154815290600101906020018083116101f357829003601f168201915b5050505050905090565b6000600480549050905090565b6008818154811061023757600080fd5b90600052602060002001600091509050805461025290610c74565b80601f016020809104026020016040519081016040528092919081815260200182805461027e90610c74565b80156102cb5780601f106102a0576101008083540402835291602001916102cb565b820191906000526020600020905b8154815290600101906020018083116102ae57829003601f168201915b505050505081565b6000806002600084815260200190815260200160002060009054906101000a900473ffffffffffffffffffffffffffffffffffffffff169050600073ffffffffffffffffffffffffffffffffffffffff168173ffffffffffffffffffffffffffffffffffffffff16141561037c576040517f08c379a000000000000000000000000000000000000000000000000000000000815260040161037390610d18565b60405180910390fd5b80915050919050565b60008073ffffffffffffffffffffffffffffffffffffffff168273ffffffffffffffffffffffffffffffffffffffff1614156103c057600080fd5b600360008373ffffffffffffffffffffffffffffffffffffffff1673ffffffffffffffffffffffffffffffffffffffff168152602001908152602001600020549050919050565b60606001805461041690610c74565b80601f016020809104026020016040519081016040528092919081815260200182805461044290610c74565b801561048f5780601f106104645761010080835404028352916020019161048f565b820191906000526020600020905b81548152906001019060200180831161047257829003601f168201915b5050505050905090565b6009816040516104a99190610d74565b908152602001604051809103902060009054906101000a900460ff1615610505576040517f08c379a00000000000000000000000000000000000000000000000000000000081526004016104fc90610dd7565b60405180910390fd5b600881908060018154018082558091505060019003906000526020600020016000909190919091509080519060200190610540929190610813565b50600060016008805490506105559190610e26565b9050610561338261059c565b60016009836040516105739190610d74565b908152602001604051809103902060006101000a81548160ff0219169083151502179055505050565b6105a682826105b3565b6105af81610775565b5050565b600073ffffffffffffffffffffffffffffffffffffffff168273ffffffffffffffffffffffffffffffffffffffff161415610623576040517f08c379a000000000000000000000000000000000000000000000000000000000815260040161061a90610ea6565b60405180910390fd5b61062c816107a1565b1561066c576040517f08c379a000000000000000000000000000000000000000000000000000000000815260040161066390610f12565b60405180910390fd5b816002600083815260200190815260200160002060006101000a81548173ffffffffffffffffffffffffffffffffffffffff021916908373ffffffffffffffffffffffffffffffffffffffff1602179055506001600360008473ffffffffffffffffffffffffffffffffffffffff1673ffffffffffffffffffffffffffffffffffffffff168152602001908152602001600020600082825461070e9190610f32565b92505081905550808273ffffffffffffffffffffffffffffffffffffffff16600073ffffffffffffffffffffffffffffffffffffffff167fddf252ad1be2c89b69c2b068fc378daa952ba7f163c4a11628f55a4df523b3ef60405160405180910390a45050565b600481908060018154018082558091505060019003906000526020600020016000909190919091505550565b6000806002600084815260200190815260200160002060009054906101000a900473ffffffffffffffffffffffffffffffffffffffff169050600073ffffffffffffffffffffffffffffffffffffffff168173ffffffffffffffffffffffffffffffffffffffff161415915050919050565b82805461081f90610c74565b90600052602060002090601f0160209004810192826108415760008555610888565b82601f1061085a57805160ff1916838001178555610888565b82800160010185558215610888579182015b8281111561088757825182559160200191906001019061086c565b5b5090506108959190610899565b5090565b5b808211156108b257600081600090555060010161089a565b5090565b600081519050919050565b600082825260208201905092915050565b60005b838110156108f05780820151818401526020810190506108d5565b838111156108ff576000848401525b50505050565b6000601f19601f8301169050919050565b6000610921826108b6565b61092b81856108c1565b935061093b8185602086016108d2565b61094481610905565b840191505092915050565b600060208201905081810360008301526109698184610916565b905092915050565b6000819050919050565b61098481610971565b82525050565b600060208201905061099f600083018461097b565b92915050565b6000604051905090565b600080fd5b600080fd5b6109c281610971565b81146109cd57600080fd5b50565b6000813590506109df816109b9565b92915050565b6000602082840312156109fb576109fa6109af565b5b6000610a09848285016109d0565b91505092915050565b600073ffffffffffffffffffffffffffffffffffffffff82169050919050565b6000610a3d82610a12565b9050919050565b610a4d81610a32565b82525050565b6000602082019050610a686000830184610a44565b92915050565b610a7781610a32565b8114610a8257600080fd5b50565b600081359050610a9481610a6e565b92915050565b600060208284031215610ab057610aaf6109af565b5b6000610abe84828501610a85565b91505092915050565b600080fd5b600080fd5b7f4e487b7100000000000000000000000000000000000000000000000000000000600052604160045260246000fd5b610b0982610905565b810181811067ffffffffffffffff82111715610b2857610b27610ad1565b5b80604052505050565b6000610b3b6109a5565b9050610b478282610b00565b919050565b600067ffffffffffffffff821115610b6757610b66610ad1565b5b610b7082610905565b9050602081019050919050565b82818337600083830152505050565b6000610b9f610b9a84610b4c565b610b31565b905082815260208101848484011115610bbb57610bba610acc565b5b610bc6848285610b7d565b509392505050565b600082601f830112610be357610be2610ac7565b5b8135610bf3848260208601610b8c565b91505092915050565b600060208284031215610c1257610c116109af565b5b600082013567ffffffffffffffff811115610c3057610c2f6109b4565b5b610c3c84828501610bce565b91505092915050565b7f4e487b7100000000000000000000000000000000000000000000000000000000600052602260045260246000fd5b60006002820490506001821680610c8c57607f821691505b60208210811415610ca057610c9f610c45565b5b50919050565b7f4552433732313a206f776e657220717565727920666f72206e6f6e2d6578697360008201527f74696e6720746f6b656e00000000000000000000000000000000000000000000602082015250565b6000610d02602a836108c1565b9150610d0d82610ca6565b604082019050919050565b60006020820190508181036000830152610d3181610cf5565b9050919050565b600081905092915050565b6000610d4e826108b6565b610d588185610d38565b9350610d688185602086016108d2565b80840191505092915050565b6000610d808284610d43565b915081905092915050565b7f4572726f72202d204272617a756b6120616c7265616479206578697374730000600082015250565b6000610dc1601e836108c1565b9150610dcc82610d8b565b602082019050919050565b60006020820190508181036000830152610df081610db4565b9050919050565b7f4e487b7100000000000000000000000000000000000000000000000000000000600052601160045260246000fd5b6000610e3182610971565b9150610e3c83610971565b925082821015610e4f57610e4e610df7565b5b828203905092915050565b7f4552433732313a206d696e74696e6720746865207a65726f2061646472657373600082015250565b6000610e906020836108c1565b9150610e9b82610e5a565b602082019050919050565b60006020820190508181036000830152610ebf81610e83565b9050919050565b7f4552433732313a20746f6b656e20616c7265616479206d696e74656400000000600082015250565b6000610efc601c836108c1565b9150610f0782610ec6565b602082019050919050565b60006020820190508181036000830152610f2b81610eef565b9050919050565b6000610f3d82610971565b9150610f4883610971565b9250827fffffffffffffffffffffffffffffffffffffffffffffffffffffffffffffffff03821115610f7d57610f7c610df7565b5b82820190509291505056fea26469706673582212200c4e302658df68cff03f0ade5f10a3f181f0e5c5153def9729aa9aede6efd03664736f6c634300080a0033",
  "immutableReferences": {},
  "source": "// SPDX-License-Identifier: MIT\npragma solidity ^0.8.0;\n\nimport \"./ERC721Connector.sol\";\n\ncontract Brazukas is ERC721Connector {\n    string[] public BrazukasArray;\n\n    mapping(string => bool) _brazukaExists;\n\n    function mint(string memory _brazuka) public {\n        require(!_brazukaExists[_brazuka], \"Error - Brazuka already exists\");\n\n        BrazukasArray.push(_brazuka);\n        uint256 _id = BrazukasArray.length - 1;\n\n        _mint(msg.sender, _id);\n\n        _brazukaExists[_brazuka] = true;\n    }\n\n    constructor() ERC721Connector(\"Brazukas\", \"BZKS\") {}\n}\n",
  "sourcePath": "/Users/gabriel/Documents/Git/nft-marketplace/src/contracts/Brazukas.sol",
  "compiler": {
    "name": "solc",
    "version": "0.8.10+commit.fc410830.Emscripten.clang"
  },
  "schemaVersion": "3.4.3",
  "updatedAt": "2021-11-26T20:08:03.442Z",
  "networkType": "ethereum",
  "devdoc": {
    "kind": "dev",
    "methods": {},
    "version": 1
  },
  "userdoc": {
    "kind": "user",
    "methods": {},
    "version": 1
  }
}