{
  "contractName": "Brazukas",
  "abi": [
    {
      "inputs": [],
      "stateMutability": "nonpayable",
      "type": "constructor"
    },
    {
      "anonymous": false,
      "inputs": [
        {
          "indexed": true,
          "internalType": "address",
          "name": "_owner",
          "type": "address"
        },
        {
          "indexed": true,
          "internalType": "address",
          "name": "_approved",
          "type": "address"
        },
        {
          "indexed": true,
          "internalType": "uint256",
          "name": "_tokenId",
          "type": "uint256"
        }
      ],
      "name": "Approval",
      "type": "event"
    },
    {
      "anonymous": false,
      "inputs": [
        {
          "indexed": true,
          "internalType": "address",
          "name": "_owner",
          "type": "address"
        },
        {
          "indexed": true,
          "internalType": "address",
          "name": "_operator",
          "type": "address"
        },
        {
          "indexed": false,
          "internalType": "bool",
          "name": "_approved",
          "type": "bool"
        }
      ],
      "name": "ApprovalForAll",
      "type": "event"
    },
    {
      "anonymous": false,
      "inputs": [
        {
          "indexed": true,
          "internalType": "address",
          "name": "_from",
          "type": "address"
        },
        {
          "indexed": true,
          "internalType": "address",
          "name": "_to",
          "type": "address"
        },
        {
          "indexed": true,
          "internalType": "uint256",
          "name": "_tokenId",
          "type": "uint256"
        }
      ],
      "name": "Transfer",
      "type": "event"
    },
    {
      "inputs": [
        {
          "internalType": "uint256",
          "name": "",
          "type": "uint256"
        }
      ],
      "name": "BrazukasArray",
      "outputs": [
        {
          "internalType": "string",
          "name": "",
          "type": "string"
        }
      ],
      "stateMutability": "view",
      "type": "function",
      "constant": true
    },
    {
      "inputs": [
        {
          "internalType": "address",
          "name": "_to",
          "type": "address"
        },
        {
          "internalType": "uint256",
          "name": "_tokenId",
          "type": "uint256"
        }
      ],
      "name": "approve",
      "outputs": [],
      "stateMutability": "nonpayable",
      "type": "function"
    },
    {
      "inputs": [
        {
          "internalType": "address",
          "name": "_owner",
          "type": "address"
        }
      ],
      "name": "balanceOf",
      "outputs": [
        {
          "internalType": "uint256",
          "name": "",
          "type": "uint256"
        }
      ],
      "stateMutability": "view",
      "type": "function",
      "constant": true
    },
    {
      "inputs": [
        {
          "internalType": "uint256",
          "name": "tokenId",
          "type": "uint256"
        }
      ],
      "name": "getApproved",
      "outputs": [
        {
          "internalType": "address",
          "name": "",
          "type": "address"
        }
      ],
      "stateMutability": "view",
      "type": "function",
      "constant": true
    },
    {
      "inputs": [
        {
          "internalType": "address",
          "name": "owner",
          "type": "address"
        },
        {
          "internalType": "address",
          "name": "operator",
          "type": "address"
        }
      ],
      "name": "isApprovedForAll",
      "outputs": [
        {
          "internalType": "bool",
          "name": "",
          "type": "bool"
        }
      ],
      "stateMutability": "view",
      "type": "function",
      "constant": true
    },
    {
      "inputs": [],
      "name": "name",
      "outputs": [
        {
          "internalType": "string",
          "name": "",
          "type": "string"
        }
      ],
      "stateMutability": "view",
      "type": "function",
      "constant": true
    },
    {
      "inputs": [
        {
          "internalType": "uint256",
          "name": "_id",
          "type": "uint256"
        }
      ],
      "name": "ownerOf",
      "outputs": [
        {
          "internalType": "address",
          "name": "",
          "type": "address"
        }
      ],
      "stateMutability": "view",
      "type": "function",
      "constant": true
    },
    {
      "inputs": [
        {
          "internalType": "address",
          "name": "operator",
          "type": "address"
        },
        {
          "internalType": "bool",
          "name": "approved",
          "type": "bool"
        }
      ],
      "name": "setApprovalForAll",
      "outputs": [],
      "stateMutability": "nonpayable",
      "type": "function"
    },
    {
      "inputs": [
        {
          "internalType": "bytes4",
          "name": "interfaceId",
          "type": "bytes4"
        }
      ],
      "name": "supportsInterface",
      "outputs": [
        {
          "internalType": "bool",
          "name": "",
          "type": "bool"
        }
      ],
      "stateMutability": "view",
      "type": "function",
      "constant": true
    },
    {
      "inputs": [],
      "name": "symbol",
      "outputs": [
        {
          "internalType": "string",
          "name": "",
          "type": "string"
        }
      ],
      "stateMutability": "view",
      "type": "function",
      "constant": true
    },
    {
      "inputs": [
        {
          "internalType": "uint256",
          "name": "index",
          "type": "uint256"
        }
      ],
      "name": "tokenByIndex",
      "outputs": [
        {
          "internalType": "uint256",
          "name": "",
          "type": "uint256"
        }
      ],
      "stateMutability": "view",
      "type": "function",
      "constant": true
    },
    {
      "inputs": [
        {
          "internalType": "address",
          "name": "owner",
          "type": "address"
        },
        {
          "internalType": "uint256",
          "name": "index",
          "type": "uint256"
        }
      ],
      "name": "tokenOfOwnerByIndex",
      "outputs": [
        {
          "internalType": "uint256",
          "name": "",
          "type": "uint256"
        }
      ],
      "stateMutability": "view",
      "type": "function",
      "constant": true
    },
    {
      "inputs": [],
      "name": "totalSupply",
      "outputs": [
        {
          "internalType": "uint256",
          "name": "",
          "type": "uint256"
        }
      ],
      "stateMutability": "view",
      "type": "function",
      "constant": true
    },
    {
      "inputs": [
        {
          "internalType": "address",
          "name": "_from",
          "type": "address"
        },
        {
          "internalType": "address",
          "name": "_to",
          "type": "address"
        },
        {
          "internalType": "uint256",
          "name": "_tokenId",
          "type": "uint256"
        }
      ],
      "name": "transferFrom",
      "outputs": [],
      "stateMutability": "nonpayable",
      "type": "function"
    },
    {
      "inputs": [
        {
          "internalType": "string",
          "name": "_brazuka",
          "type": "string"
        }
      ],
      "name": "mint",
      "outputs": [],
      "stateMutability": "nonpayable",
      "type": "function"
    }
  ],
  "bytecode": "0x60806040523480156200001157600080fd5b506040518060400160405280600881526020017f4272617a756b61730000000000000000000000000000000000000000000000008152506040518060400160405280600481526020017f425a4b5300000000000000000000000000000000000000000000000000000000815250818181600090805190602001906200009892919062000162565b508060019080519060200190620000b192919062000162565b50505060007f9d2e11cb7b07ae43fd737a030d1d2791771799a8a567e5c0717acee8c589328a9050620000ea81620000f360201b60201c565b50505062000320565b63ffffffff60e01b817bffffffffffffffffffffffffffffffffffffffffffffffffffffffff191614156200015f576040517f08c379a0000000000000000000000000000000000000000000000000000000008152600401620001569062000299565b60405180910390fd5b50565b8280546200017090620002ea565b90600052602060002090601f016020900481019282620001945760008555620001e0565b82601f10620001af57805160ff1916838001178555620001e0565b82800160010185558215620001e0579182015b82811115620001df578251825591602001919060010190620001c2565b5b509050620001ef9190620001f3565b5090565b5b808211156200020e576000816000905550600101620001f4565b5090565b600082825260208201905092915050565b7f4552433136353a20496e76616c696420696e746572666163652072657175657360008201527f7400000000000000000000000000000000000000000000000000000000000000602082015250565b60006200028160218362000212565b91506200028e8262000223565b604082019050919050565b60006020820190508181036000830152620002b48162000272565b9050919050565b7f4e487b7100000000000000000000000000000000000000000000000000000000600052602260045260246000fd5b600060028204905060018216806200030357607f821691505b602082108114156200031a5762000319620002bb565b5b50919050565b61258180620003306000396000f3fe608060405234801561001057600080fd5b50600436106100f55760003560e01c80632f745c591161009757806395d89b411161006657806395d89b41146102be578063a22cb465146102dc578063d85d3d27146102f8578063e985e9c514610314576100f5565b80632f745c59146101fe5780634f6ccce71461022e5780636352211e1461025e57806370a082311461028e576100f5565b8063095ea7b3116100d3578063095ea7b31461017857806318160ddd1461019457806323b872dd146101b25780632f55ab79146101ce576100f5565b806301ffc9a7146100fa57806306fdde031461012a578063081812fc14610148575b600080fd5b610114600480360381019061010f919061174b565b610344565b6040516101219190611793565b60405180910390f35b6101326103ac565b60405161013f9190611847565b60405180910390f35b610162600480360381019061015d919061189f565b61043e565b60405161016f919061190d565b60405180910390f35b610192600480360381019061018d9190611954565b6104c3565b005b61019c610670565b6040516101a991906119a3565b60405180910390f35b6101cc60048036038101906101c791906119be565b61067d565b005b6101e860048036038101906101e3919061189f565b610698565b6040516101f59190611847565b60405180910390f35b61021860048036038101906102139190611954565b610744565b60405161022591906119a3565b60405180910390f35b6102486004803603810190610243919061189f565b61082e565b60405161025591906119a3565b60405180910390f35b6102786004803603810190610273919061189f565b61089f565b604051610285919061190d565b60405180910390f35b6102a860048036038101906102a39190611a11565b610951565b6040516102b591906119a3565b60405180910390f35b6102c66109d3565b6040516102d39190611847565b60405180910390f35b6102f660048036038101906102f19190611a6a565b610a65565b005b610312600480360381019061030d9190611bdf565b610c41565b005b61032e60048036038101906103299190611c28565b610d44565b60405161033b9190611793565b60405180910390f35b600060026000837bffffffffffffffffffffffffffffffffffffffffffffffffffffffff19167bffffffffffffffffffffffffffffffffffffffffffffffffffffffff1916815260200190815260200160002060009054906101000a900460ff169050919050565b6060600080546103bb90611c97565b80601f01602080910402602001604051908101604052809291908181526020018280546103e790611c97565b80156104345780601f1061040957610100808354040283529160200191610434565b820191906000526020600020905b81548152906001019060200180831161041757829003601f168201915b5050505050905090565b600061044982610dd8565b610488576040517f08c379a000000000000000000000000000000000000000000000000000000000815260040161047f90611d3b565b60405180910390fd5b6005600083815260200190815260200160002060009054906101000a900473ffffffffffffffffffffffffffffffffffffffff169050919050565b60006104ce8261089f565b90508073ffffffffffffffffffffffffffffffffffffffff168373ffffffffffffffffffffffffffffffffffffffff16141561053f576040517f08c379a000000000000000000000000000000000000000000000000000000000815260040161053690611dcd565b60405180910390fd5b8073ffffffffffffffffffffffffffffffffffffffff163373ffffffffffffffffffffffffffffffffffffffff16148061057f575061057e8133610d44565b5b6105be576040517f08c379a00000000000000000000000000000000000000000000000000000000081526004016105b590611e5f565b60405180910390fd5b826005600084815260200190815260200160002060006101000a81548173ffffffffffffffffffffffffffffffffffffffff021916908373ffffffffffffffffffffffffffffffffffffffff160217905550818373ffffffffffffffffffffffffffffffffffffffff168273ffffffffffffffffffffffffffffffffffffffff167f8c5be1e5ebec7d5bd14f71427d1e84f3dd0314c0f7b2291e5b200ac8c7c3b92560405160405180910390a4505050565b6000600780549050905090565b610688838383610e4a565b610693838383610e6d565b505050565b600b81815481106106a857600080fd5b9060005260206000200160009150905080546106c390611c97565b80601f01602080910402602001604051908101604052809291908181526020018280546106ef90611c97565b801561073c5780601f106107115761010080835404028352916020019161073c565b820191906000526020600020905b81548152906001019060200180831161071f57829003601f168201915b505050505081565b6000600960008473ffffffffffffffffffffffffffffffffffffffff1673ffffffffffffffffffffffffffffffffffffffff1681526020019081526020016000208054905082106107ca576040517f08c379a00000000000000000000000000000000000000000000000000000000081526004016107c190611ecb565b60405180910390fd5b600960008473ffffffffffffffffffffffffffffffffffffffff1673ffffffffffffffffffffffffffffffffffffffff168152602001908152602001600020828154811061081b5761081a611eeb565b5b9060005260206000200154905092915050565b6000610838610670565b8210610879576040517f08c379a000000000000000000000000000000000000000000000000000000000815260040161087090611f66565b60405180910390fd5b6007828154811061088d5761088c611eeb565b5b90600052602060002001549050919050565b6000806003600084815260200190815260200160002060009054906101000a900473ffffffffffffffffffffffffffffffffffffffff169050600073ffffffffffffffffffffffffffffffffffffffff168173ffffffffffffffffffffffffffffffffffffffff161415610948576040517f08c379a000000000000000000000000000000000000000000000000000000000815260040161093f90611ff8565b60405180910390fd5b80915050919050565b60008073ffffffffffffffffffffffffffffffffffffffff168273ffffffffffffffffffffffffffffffffffffffff16141561098c57600080fd5b600460008373ffffffffffffffffffffffffffffffffffffffff1673ffffffffffffffffffffffffffffffffffffffff168152602001908152602001600020549050919050565b6060600180546109e290611c97565b80601f0160208091040260200160405190810160405280929190818152602001828054610a0e90611c97565b8015610a5b5780601f10610a3057610100808354040283529160200191610a5b565b820191906000526020600020905b815481529060010190602001808311610a3e57829003601f168201915b5050505050905090565b8173ffffffffffffffffffffffffffffffffffffffff163373ffffffffffffffffffffffffffffffffffffffff161415610ad4576040517f08c379a0000000000000000000000000000000000000000000000000000000008152600401610acb90612064565b60405180910390fd5b600073ffffffffffffffffffffffffffffffffffffffff168273ffffffffffffffffffffffffffffffffffffffff161415610b44576040517f08c379a0000000000000000000000000000000000000000000000000000000008152600401610b3b906120f6565b60405180910390fd5b80600660003373ffffffffffffffffffffffffffffffffffffffff1673ffffffffffffffffffffffffffffffffffffffff16815260200190815260200160002060008473ffffffffffffffffffffffffffffffffffffffff1673ffffffffffffffffffffffffffffffffffffffff16815260200190815260200160002060006101000a81548160ff0219169083151502179055508173ffffffffffffffffffffffffffffffffffffffff163373ffffffffffffffffffffffffffffffffffffffff167f17307eab39ab6107e8899845ad3d59bd9653f200f220920489ca2b5937696c3183604051610c359190611793565b60405180910390a35050565b600c81604051610c519190612152565b908152602001604051809103902060009054906101000a900460ff1615610cad576040517f08c379a0000000000000000000000000000000000000000000000000000000008152600401610ca4906121b5565b60405180910390fd5b600b81908060018154018082558091505060019003906000526020600020016000909190919091509080519060200190610ce892919061163c565b5060006001600b80549050610cfd9190612204565b9050610d093382610e86565b6001600c83604051610d1b9190612152565b908152602001604051809103902060006101000a81548160ff0219169083151502179055505050565b6000600660008473ffffffffffffffffffffffffffffffffffffffff1673ffffffffffffffffffffffffffffffffffffffff16815260200190815260200160002060008373ffffffffffffffffffffffffffffffffffffffff1673ffffffffffffffffffffffffffffffffffffffff16815260200190815260200160002060009054906101000a900460ff16905092915050565b6000806003600084815260200190815260200160002060009054906101000a900473ffffffffffffffffffffffffffffffffffffffff169050600073ffffffffffffffffffffffffffffffffffffffff168173ffffffffffffffffffffffffffffffffffffffff161415915050919050565b610e543382610ea7565b610e5d57600080fd5b610e68838383610f85565b505050565b610e7783826111cb565b610e81828261136d565b505050565b610e908282611431565b610e99816115f3565b610ea3828261136d565b5050565b6000610eb282610dd8565b610ef1576040517f08c379a0000000000000000000000000000000000000000000000000000000008152600401610ee8906122aa565b60405180910390fd5b6000610efc8361089f565b90508373ffffffffffffffffffffffffffffffffffffffff168173ffffffffffffffffffffffffffffffffffffffff161480610f6b57508373ffffffffffffffffffffffffffffffffffffffff16610f538461043e565b73ffffffffffffffffffffffffffffffffffffffff16145b80610f7c5750610f7b8185610d44565b5b91505092915050565b600073ffffffffffffffffffffffffffffffffffffffff168273ffffffffffffffffffffffffffffffffffffffff161415610ff5576040517f08c379a0000000000000000000000000000000000000000000000000000000008152600401610fec9061233c565b60405180910390fd5b8273ffffffffffffffffffffffffffffffffffffffff166110158261089f565b73ffffffffffffffffffffffffffffffffffffffff161461106b576040517f08c379a0000000000000000000000000000000000000000000000000000000008152600401611062906123ce565b60405180910390fd5b6001600460008573ffffffffffffffffffffffffffffffffffffffff1673ffffffffffffffffffffffffffffffffffffffff16815260200190815260200160002060008282546110bb9190612204565b925050819055506001600460008473ffffffffffffffffffffffffffffffffffffffff1673ffffffffffffffffffffffffffffffffffffffff168152602001908152602001600020600082825461111291906123ee565b92505081905550816003600083815260200190815260200160002060006101000a81548173ffffffffffffffffffffffffffffffffffffffff021916908373ffffffffffffffffffffffffffffffffffffffff160217905550808273ffffffffffffffffffffffffffffffffffffffff168473ffffffffffffffffffffffffffffffffffffffff167fddf252ad1be2c89b69c2b068fc378daa952ba7f163c4a11628f55a4df523b3ef60405160405180910390a4505050565b6000600a6000838152602001908152602001600020549050600960008473ffffffffffffffffffffffffffffffffffffffff1673ffffffffffffffffffffffffffffffffffffffff1681526020019081526020016000206001600960008673ffffffffffffffffffffffffffffffffffffffff1673ffffffffffffffffffffffffffffffffffffffff168152602001908152602001600020805490506112719190612204565b8154811061128257611281611eeb565b5b9060005260206000200154600960008573ffffffffffffffffffffffffffffffffffffffff1673ffffffffffffffffffffffffffffffffffffffff16815260200190815260200160002082815481106112de576112dd611eeb565b5b9060005260206000200181905550600960008473ffffffffffffffffffffffffffffffffffffffff1673ffffffffffffffffffffffffffffffffffffffff16815260200190815260200160002080548061133b5761133a612444565b5b60019003818190600052602060002001600090559055600a600083815260200190815260200160002060009055505050565b600960008373ffffffffffffffffffffffffffffffffffffffff1673ffffffffffffffffffffffffffffffffffffffff16815260200190815260200160002080549050600a600083815260200190815260200160002081905550600960008373ffffffffffffffffffffffffffffffffffffffff1673ffffffffffffffffffffffffffffffffffffffff1681526020019081526020016000208190806001815401808255809150506001900390600052602060002001600090919091909150555050565b600073ffffffffffffffffffffffffffffffffffffffff168273ffffffffffffffffffffffffffffffffffffffff1614156114a1576040517f08c379a0000000000000000000000000000000000000000000000000000000008152600401611498906124bf565b60405180910390fd5b6114aa81610dd8565b156114ea576040517f08c379a00000000000000000000000000000000000000000000000000000000081526004016114e19061252b565b60405180910390fd5b816003600083815260200190815260200160002060006101000a81548173ffffffffffffffffffffffffffffffffffffffff021916908373ffffffffffffffffffffffffffffffffffffffff1602179055506001600460008473ffffffffffffffffffffffffffffffffffffffff1673ffffffffffffffffffffffffffffffffffffffff168152602001908152602001600020600082825461158c91906123ee565b92505081905550808273ffffffffffffffffffffffffffffffffffffffff16600073ffffffffffffffffffffffffffffffffffffffff167fddf252ad1be2c89b69c2b068fc378daa952ba7f163c4a11628f55a4df523b3ef60405160405180910390a45050565b6007805490506008600083815260200190815260200160002081905550600781908060018154018082558091505060019003906000526020600020016000909190919091505550565b82805461164890611c97565b90600052602060002090601f01602090048101928261166a57600085556116b1565b82601f1061168357805160ff19168380011785556116b1565b828001600101855582156116b1579182015b828111156116b0578251825591602001919060010190611695565b5b5090506116be91906116c2565b5090565b5b808211156116db5760008160009055506001016116c3565b5090565b6000604051905090565b600080fd5b600080fd5b60007fffffffff0000000000000000000000000000000000000000000000000000000082169050919050565b611728816116f3565b811461173357600080fd5b50565b6000813590506117458161171f565b92915050565b600060208284031215611761576117606116e9565b5b600061176f84828501611736565b91505092915050565b60008115159050919050565b61178d81611778565b82525050565b60006020820190506117a86000830184611784565b92915050565b600081519050919050565b600082825260208201905092915050565b60005b838110156117e85780820151818401526020810190506117cd565b838111156117f7576000848401525b50505050565b6000601f19601f8301169050919050565b6000611819826117ae565b61182381856117b9565b93506118338185602086016117ca565b61183c816117fd565b840191505092915050565b60006020820190508181036000830152611861818461180e565b905092915050565b6000819050919050565b61187c81611869565b811461188757600080fd5b50565b60008135905061189981611873565b92915050565b6000602082840312156118b5576118b46116e9565b5b60006118c38482850161188a565b91505092915050565b600073ffffffffffffffffffffffffffffffffffffffff82169050919050565b60006118f7826118cc565b9050919050565b611907816118ec565b82525050565b600060208201905061192260008301846118fe565b92915050565b611931816118ec565b811461193c57600080fd5b50565b60008135905061194e81611928565b92915050565b6000806040838503121561196b5761196a6116e9565b5b60006119798582860161193f565b925050602061198a8582860161188a565b9150509250929050565b61199d81611869565b82525050565b60006020820190506119b86000830184611994565b92915050565b6000806000606084860312156119d7576119d66116e9565b5b60006119e58682870161193f565b93505060206119f68682870161193f565b9250506040611a078682870161188a565b9150509250925092565b600060208284031215611a2757611a266116e9565b5b6000611a358482850161193f565b91505092915050565b611a4781611778565b8114611a5257600080fd5b50565b600081359050611a6481611a3e565b92915050565b60008060408385031215611a8157611a806116e9565b5b6000611a8f8582860161193f565b9250506020611aa085828601611a55565b9150509250929050565b600080fd5b600080fd5b7f4e487b7100000000000000000000000000000000000000000000000000000000600052604160045260246000fd5b611aec826117fd565b810181811067ffffffffffffffff82111715611b0b57611b0a611ab4565b5b80604052505050565b6000611b1e6116df565b9050611b2a8282611ae3565b919050565b600067ffffffffffffffff821115611b4a57611b49611ab4565b5b611b53826117fd565b9050602081019050919050565b82818337600083830152505050565b6000611b82611b7d84611b2f565b611b14565b905082815260208101848484011115611b9e57611b9d611aaf565b5b611ba9848285611b60565b509392505050565b600082601f830112611bc657611bc5611aaa565b5b8135611bd6848260208601611b6f565b91505092915050565b600060208284031215611bf557611bf46116e9565b5b600082013567ffffffffffffffff811115611c1357611c126116ee565b5b611c1f84828501611bb1565b91505092915050565b60008060408385031215611c3f57611c3e6116e9565b5b6000611c4d8582860161193f565b9250506020611c5e8582860161193f565b9150509250929050565b7f4e487b7100000000000000000000000000000000000000000000000000000000600052602260045260246000fd5b60006002820490506001821680611caf57607f821691505b60208210811415611cc357611cc2611c68565b5b50919050565b7f4552433732313a20617070726f76656420717565727920666f72206e6f6e657860008201527f697374656e7420746f6b656e0000000000000000000000000000000000000000602082015250565b6000611d25602c836117b9565b9150611d3082611cc9565b604082019050919050565b60006020820190508181036000830152611d5481611d18565b9050919050565b7f4552433732313a206572726f72206170726f76696e6720746f2063757272656e60008201527f74206f776e657200000000000000000000000000000000000000000000000000602082015250565b6000611db76027836117b9565b9150611dc282611d5b565b604082019050919050565b60006020820190508181036000830152611de681611daa565b9050919050565b7f4552433732313a2063757272656e742063616c6c6572206973206e6f7420746860008201527f65206f776e6572206f72206e6f7420617070726f76656420666f7220616c6c00602082015250565b6000611e49603f836117b9565b9150611e5482611ded565b604082019050919050565b60006020820190508181036000830152611e7881611e3c565b9050919050565b7f6f776e657220696e646578206973206f7574206f6620626f756e647300000000600082015250565b6000611eb5601c836117b9565b9150611ec082611e7f565b602082019050919050565b60006020820190508181036000830152611ee481611ea8565b9050919050565b7f4e487b7100000000000000000000000000000000000000000000000000000000600052603260045260246000fd5b7f676c6f62616c20696e646578206973206f7574206f6620626f756e6473000000600082015250565b6000611f50601d836117b9565b9150611f5b82611f1a565b602082019050919050565b60006020820190508181036000830152611f7f81611f43565b9050919050565b7f4552433732313a206f776e657220717565727920666f72206e6f6e2d6578697360008201527f74696e6720746f6b656e00000000000000000000000000000000000000000000602082015250565b6000611fe2602a836117b9565b9150611fed82611f86565b604082019050919050565b6000602082019050818103600083015261201181611fd5565b9050919050565b7f4552433732313a20617070726f766520746f2063616c6c657200000000000000600082015250565b600061204e6019836117b9565b915061205982612018565b602082019050919050565b6000602082019050818103600083015261207d81612041565b9050919050565b7f4552433732313a206f70657261746f722068617665207a65726f20616464726560008201527f7373000000000000000000000000000000000000000000000000000000000000602082015250565b60006120e06022836117b9565b91506120eb82612084565b604082019050919050565b6000602082019050818103600083015261210f816120d3565b9050919050565b600081905092915050565b600061212c826117ae565b6121368185612116565b93506121468185602086016117ca565b80840191505092915050565b600061215e8284612121565b915081905092915050565b7f4572726f72202d204272617a756b6120616c7265616479206578697374730000600082015250565b600061219f601e836117b9565b91506121aa82612169565b602082019050919050565b600060208201905081810360008301526121ce81612192565b9050919050565b7f4e487b7100000000000000000000000000000000000000000000000000000000600052601160045260246000fd5b600061220f82611869565b915061221a83611869565b92508282101561222d5761222c6121d5565b5b828203905092915050565b7f4552433732313a206f70657261746f7220717565727920666f72206e6f6e657860008201527f697374656e7420746f6b656e0000000000000000000000000000000000000000602082015250565b6000612294602c836117b9565b915061229f82612238565b604082019050919050565b600060208201905081810360008301526122c381612287565b9050919050565b7f4552433732313a206572726f72207768696c65207472616e73666572696e672060008201527f746f207a65726f20616464726573730000000000000000000000000000000000602082015250565b6000612326602f836117b9565b9150612331826122ca565b604082019050919050565b6000602082019050818103600083015261235581612319565b9050919050565b7f4552433732313a20746f6b656e206e6f74206f776e6564206f7220646f206e6f60008201527f7420657869737400000000000000000000000000000000000000000000000000602082015250565b60006123b86027836117b9565b91506123c38261235c565b604082019050919050565b600060208201905081810360008301526123e7816123ab565b9050919050565b60006123f982611869565b915061240483611869565b9250827fffffffffffffffffffffffffffffffffffffffffffffffffffffffffffffffff03821115612439576124386121d5565b5b828201905092915050565b7f4e487b7100000000000000000000000000000000000000000000000000000000600052603160045260246000fd5b7f4552433732313a206d696e74696e6720746865207a65726f2061646472657373600082015250565b60006124a96020836117b9565b91506124b482612473565b602082019050919050565b600060208201905081810360008301526124d88161249c565b9050919050565b7f4552433732313a20746f6b656e20616c7265616479206d696e74656400000000600082015250565b6000612515601c836117b9565b9150612520826124df565b602082019050919050565b6000602082019050818103600083015261254481612508565b905091905056fea264697066735822122004a4a17ed54a2ec9c055f8382da703b167b6c53432a9c4a2b2d02ece74e8879a64736f6c634300080a0033",
  "immutableReferences": {},
  "source": "// SPDX-License-Identifier: MIT\npragma solidity ^0.8.0;\n\nimport \"./ERC721Connector.sol\";\n\ncontract Brazukas is ERC721Connector {\n    string[] public BrazukasArray;\n\n    mapping(string => bool) _brazukaExists;\n\n    function mint(string memory _brazuka) public {\n        require(!_brazukaExists[_brazuka], \"Error - Brazuka already exists\");\n\n        BrazukasArray.push(_brazuka);\n        uint256 _id = BrazukasArray.length - 1;\n\n        _mint(msg.sender, _id);\n\n        _brazukaExists[_brazuka] = true;\n    }\n\n    constructor() ERC721Connector(\"Brazukas\", \"BZKS\") {}\n}\n",
  "sourcePath": "/Users/gabriel/Documents/Git/nft-marketplace/src/contracts/Brazukas.sol",
  "compiler": {
    "name": "solc",
    "version": "0.8.10+commit.fc410830.Emscripten.clang"
  },
  "schemaVersion": "3.4.3",
  "updatedAt": "2021-12-06T22:50:31.981Z",
  "networkType": "ethereum",
  "devdoc": {
    "kind": "dev",
    "methods": {},
    "version": 1
  },
  "userdoc": {
    "kind": "user",
    "methods": {},
    "version": 1
  }
}