{
  "contractName": "Brazukas",
  "abi": [
    {
      "inputs": [],
      "stateMutability": "nonpayable",
      "type": "constructor"
    },
    {
      "anonymous": false,
      "inputs": [
        {
          "indexed": true,
          "internalType": "address",
          "name": "owner",
          "type": "address"
        },
        {
          "indexed": true,
          "internalType": "address",
          "name": "approved",
          "type": "address"
        },
        {
          "indexed": true,
          "internalType": "uint256",
          "name": "tokenId",
          "type": "uint256"
        }
      ],
      "name": "Approval",
      "type": "event"
    },
    {
      "anonymous": false,
      "inputs": [
        {
          "indexed": true,
          "internalType": "address",
          "name": "owner",
          "type": "address"
        },
        {
          "indexed": true,
          "internalType": "address",
          "name": "operator",
          "type": "address"
        },
        {
          "indexed": true,
          "internalType": "bool",
          "name": "approved",
          "type": "bool"
        }
      ],
      "name": "ApprovalForAll",
      "type": "event"
    },
    {
      "anonymous": false,
      "inputs": [
        {
          "indexed": true,
          "internalType": "address",
          "name": "from",
          "type": "address"
        },
        {
          "indexed": true,
          "internalType": "address",
          "name": "to",
          "type": "address"
        },
        {
          "indexed": true,
          "internalType": "uint256",
          "name": "tokenId",
          "type": "uint256"
        }
      ],
      "name": "Transfer",
      "type": "event"
    },
    {
      "inputs": [
        {
          "internalType": "uint256",
          "name": "",
          "type": "uint256"
        }
      ],
      "name": "BrazukasArray",
      "outputs": [
        {
          "internalType": "string",
          "name": "",
          "type": "string"
        }
      ],
      "stateMutability": "view",
      "type": "function",
      "constant": true
    },
    {
      "inputs": [
        {
          "internalType": "address",
          "name": "owner",
          "type": "address"
        }
      ],
      "name": "allTokensByOwner",
      "outputs": [
        {
          "internalType": "uint256[]",
          "name": "",
          "type": "uint256[]"
        }
      ],
      "stateMutability": "view",
      "type": "function",
      "constant": true
    },
    {
      "inputs": [
        {
          "internalType": "address",
          "name": "_to",
          "type": "address"
        },
        {
          "internalType": "uint256",
          "name": "_tokenId",
          "type": "uint256"
        }
      ],
      "name": "approve",
      "outputs": [],
      "stateMutability": "nonpayable",
      "type": "function"
    },
    {
      "inputs": [
        {
          "internalType": "address",
          "name": "_owner",
          "type": "address"
        }
      ],
      "name": "balanceOf",
      "outputs": [
        {
          "internalType": "uint256",
          "name": "",
          "type": "uint256"
        }
      ],
      "stateMutability": "view",
      "type": "function",
      "constant": true
    },
    {
      "inputs": [
        {
          "internalType": "uint256",
          "name": "tokenId",
          "type": "uint256"
        }
      ],
      "name": "getApproved",
      "outputs": [
        {
          "internalType": "address",
          "name": "",
          "type": "address"
        }
      ],
      "stateMutability": "view",
      "type": "function",
      "constant": true
    },
    {
      "inputs": [
        {
          "internalType": "address",
          "name": "owner",
          "type": "address"
        },
        {
          "internalType": "address",
          "name": "operator",
          "type": "address"
        }
      ],
      "name": "isApprovedForAll",
      "outputs": [
        {
          "internalType": "bool",
          "name": "",
          "type": "bool"
        }
      ],
      "stateMutability": "view",
      "type": "function",
      "constant": true
    },
    {
      "inputs": [],
      "name": "name",
      "outputs": [
        {
          "internalType": "string",
          "name": "",
          "type": "string"
        }
      ],
      "stateMutability": "view",
      "type": "function",
      "constant": true
    },
    {
      "inputs": [
        {
          "internalType": "uint256",
          "name": "_id",
          "type": "uint256"
        }
      ],
      "name": "ownerOf",
      "outputs": [
        {
          "internalType": "address",
          "name": "",
          "type": "address"
        }
      ],
      "stateMutability": "view",
      "type": "function",
      "constant": true
    },
    {
      "inputs": [
        {
          "internalType": "address",
          "name": "operator",
          "type": "address"
        },
        {
          "internalType": "bool",
          "name": "approved",
          "type": "bool"
        }
      ],
      "name": "setApprovalForAll",
      "outputs": [],
      "stateMutability": "nonpayable",
      "type": "function"
    },
    {
      "inputs": [],
      "name": "symbol",
      "outputs": [
        {
          "internalType": "string",
          "name": "",
          "type": "string"
        }
      ],
      "stateMutability": "view",
      "type": "function",
      "constant": true
    },
    {
      "inputs": [
        {
          "internalType": "uint256",
          "name": "index",
          "type": "uint256"
        }
      ],
      "name": "tokenByIndex",
      "outputs": [
        {
          "internalType": "uint256",
          "name": "",
          "type": "uint256"
        }
      ],
      "stateMutability": "view",
      "type": "function",
      "constant": true
    },
    {
      "inputs": [
        {
          "internalType": "address",
          "name": "owner",
          "type": "address"
        },
        {
          "internalType": "uint256",
          "name": "index",
          "type": "uint256"
        }
      ],
      "name": "tokenOfOwnerByIndex",
      "outputs": [
        {
          "internalType": "uint256",
          "name": "",
          "type": "uint256"
        }
      ],
      "stateMutability": "view",
      "type": "function",
      "constant": true
    },
    {
      "inputs": [],
      "name": "totalSupply",
      "outputs": [
        {
          "internalType": "uint256",
          "name": "",
          "type": "uint256"
        }
      ],
      "stateMutability": "view",
      "type": "function",
      "constant": true
    },
    {
      "inputs": [
        {
          "internalType": "address",
          "name": "_from",
          "type": "address"
        },
        {
          "internalType": "address",
          "name": "_to",
          "type": "address"
        },
        {
          "internalType": "uint256",
          "name": "_tokenId",
          "type": "uint256"
        }
      ],
      "name": "transferFrom",
      "outputs": [],
      "stateMutability": "nonpayable",
      "type": "function"
    },
    {
      "inputs": [
        {
          "internalType": "string",
          "name": "_brazuka",
          "type": "string"
        }
      ],
      "name": "mint",
      "outputs": [],
      "stateMutability": "nonpayable",
      "type": "function"
    }
  ],
  "bytecode": "0x60806040523480156200001157600080fd5b506040518060400160405280600881526020017f4272617a756b61730000000000000000000000000000000000000000000000008152506040518060400160405280600481526020017f425a4b53000000000000000000000000000000000000000000000000000000008152508181816000908051906020019062000098929190620000bc565b508060019080519060200190620000b1929190620000bc565b5050505050620001d1565b828054620000ca906200019b565b90600052602060002090601f016020900481019282620000ee57600085556200013a565b82601f106200010957805160ff19168380011785556200013a565b828001600101855582156200013a579182015b82811115620001395782518255916020019190600101906200011c565b5b5090506200014991906200014d565b5090565b5b80821115620001685760008160009055506001016200014e565b5090565b7f4e487b7100000000000000000000000000000000000000000000000000000000600052602260045260246000fd5b60006002820490506001821680620001b457607f821691505b60208210811415620001cb57620001ca6200016c565b5b50919050565b61260380620001e16000396000f3fe608060405234801561001057600080fd5b50600436106100f55760003560e01c80634f6ccce71161009757806395d89b411161006657806395d89b41146102be578063a22cb465146102dc578063d85d3d27146102f8578063e985e9c514610314576100f5565b80634f6ccce7146101fe5780636352211e1461022e57806370a082311461025e57806374cbed311461028e576100f5565b806318160ddd116100d357806318160ddd1461016457806323b872dd146101825780632f55ab791461019e5780632f745c59146101ce576100f5565b806306fdde03146100fa578063081812fc14610118578063095ea7b314610148575b600080fd5b610102610344565b60405161010f919061179f565b60405180910390f35b610132600480360381019061012d919061180b565b6103d6565b60405161013f9190611879565b60405180910390f35b610162600480360381019061015d91906118c0565b61045b565b005b61016c610608565b604051610179919061190f565b60405180910390f35b61019c6004803603810190610197919061192a565b610615565b005b6101b860048036038101906101b3919061180b565b610630565b6040516101c5919061179f565b60405180910390f35b6101e860048036038101906101e391906118c0565b6106dc565b6040516101f5919061190f565b60405180910390f35b6102186004803603810190610213919061180b565b6107c6565b604051610225919061190f565b60405180910390f35b6102486004803603810190610243919061180b565b610837565b6040516102559190611879565b60405180910390f35b6102786004803603810190610273919061197d565b6108e9565b604051610285919061190f565b60405180910390f35b6102a860048036038101906102a3919061197d565b61096b565b6040516102b59190611a68565b60405180910390f35b6102c6610a02565b6040516102d3919061179f565b60405180910390f35b6102f660048036038101906102f19190611ac2565b610a94565b005b610312600480360381019061030d9190611c37565b610c68565b005b61032e60048036038101906103299190611c80565b610d6b565b60405161033b9190611ccf565b60405180910390f35b60606000805461035390611d19565b80601f016020809104026020016040519081016040528092919081815260200182805461037f90611d19565b80156103cc5780601f106103a1576101008083540402835291602001916103cc565b820191906000526020600020905b8154815290600101906020018083116103af57829003601f168201915b5050505050905090565b60006103e182610dff565b610420576040517f08c379a000000000000000000000000000000000000000000000000000000000815260040161041790611dbd565b60405180910390fd5b6004600083815260200190815260200160002060009054906101000a900473ffffffffffffffffffffffffffffffffffffffff169050919050565b600061046682610837565b90508073ffffffffffffffffffffffffffffffffffffffff168373ffffffffffffffffffffffffffffffffffffffff1614156104d7576040517f08c379a00000000000000000000000000000000000000000000000000000000081526004016104ce90611e4f565b60405180910390fd5b8073ffffffffffffffffffffffffffffffffffffffff163373ffffffffffffffffffffffffffffffffffffffff16148061051757506105168133610d6b565b5b610556576040517f08c379a000000000000000000000000000000000000000000000000000000000815260040161054d90611ee1565b60405180910390fd5b826004600084815260200190815260200160002060006101000a81548173ffffffffffffffffffffffffffffffffffffffff021916908373ffffffffffffffffffffffffffffffffffffffff160217905550818373ffffffffffffffffffffffffffffffffffffffff168273ffffffffffffffffffffffffffffffffffffffff167f8c5be1e5ebec7d5bd14f71427d1e84f3dd0314c0f7b2291e5b200ac8c7c3b92560405160405180910390a4505050565b6000600680549050905090565b610620838383610e71565b61062b838383610e94565b505050565b600a818154811061064057600080fd5b90600052602060002001600091509050805461065b90611d19565b80601f016020809104026020016040519081016040528092919081815260200182805461068790611d19565b80156106d45780601f106106a9576101008083540402835291602001916106d4565b820191906000526020600020905b8154815290600101906020018083116106b757829003601f168201915b505050505081565b6000600860008473ffffffffffffffffffffffffffffffffffffffff1673ffffffffffffffffffffffffffffffffffffffff168152602001908152602001600020805490508210610762576040517f08c379a000000000000000000000000000000000000000000000000000000000815260040161075990611f4d565b60405180910390fd5b600860008473ffffffffffffffffffffffffffffffffffffffff1673ffffffffffffffffffffffffffffffffffffffff16815260200190815260200160002082815481106107b3576107b2611f6d565b5b9060005260206000200154905092915050565b60006107d0610608565b8210610811576040517f08c379a000000000000000000000000000000000000000000000000000000000815260040161080890611fe8565b60405180910390fd5b6006828154811061082557610824611f6d565b5b90600052602060002001549050919050565b6000806002600084815260200190815260200160002060009054906101000a900473ffffffffffffffffffffffffffffffffffffffff169050600073ffffffffffffffffffffffffffffffffffffffff168173ffffffffffffffffffffffffffffffffffffffff1614156108e0576040517f08c379a00000000000000000000000000000000000000000000000000000000081526004016108d79061207a565b60405180910390fd5b80915050919050565b60008073ffffffffffffffffffffffffffffffffffffffff168273ffffffffffffffffffffffffffffffffffffffff16141561092457600080fd5b600360008373ffffffffffffffffffffffffffffffffffffffff1673ffffffffffffffffffffffffffffffffffffffff168152602001908152602001600020549050919050565b6060600860008373ffffffffffffffffffffffffffffffffffffffff1673ffffffffffffffffffffffffffffffffffffffff1681526020019081526020016000208054806020026020016040519081016040528092919081815260200182805480156109f657602002820191906000526020600020905b8154815260200190600101908083116109e2575b50505050509050919050565b606060018054610a1190611d19565b80601f0160208091040260200160405190810160405280929190818152602001828054610a3d90611d19565b8015610a8a5780601f10610a5f57610100808354040283529160200191610a8a565b820191906000526020600020905b815481529060010190602001808311610a6d57829003601f168201915b5050505050905090565b8173ffffffffffffffffffffffffffffffffffffffff163373ffffffffffffffffffffffffffffffffffffffff161415610b03576040517f08c379a0000000000000000000000000000000000000000000000000000000008152600401610afa906120e6565b60405180910390fd5b600073ffffffffffffffffffffffffffffffffffffffff168273ffffffffffffffffffffffffffffffffffffffff161415610b73576040517f08c379a0000000000000000000000000000000000000000000000000000000008152600401610b6a90612178565b60405180910390fd5b80600560003373ffffffffffffffffffffffffffffffffffffffff1673ffffffffffffffffffffffffffffffffffffffff16815260200190815260200160002060008473ffffffffffffffffffffffffffffffffffffffff1673ffffffffffffffffffffffffffffffffffffffff16815260200190815260200160002060006101000a81548160ff0219169083151502179055508015158273ffffffffffffffffffffffffffffffffffffffff163373ffffffffffffffffffffffffffffffffffffffff167f17307eab39ab6107e8899845ad3d59bd9653f200f220920489ca2b5937696c3160405160405180910390a45050565b600b81604051610c7891906121d4565b908152602001604051809103902060009054906101000a900460ff1615610cd4576040517f08c379a0000000000000000000000000000000000000000000000000000000008152600401610ccb90612237565b60405180910390fd5b600a81908060018154018082558091505060019003906000526020600020016000909190919091509080519060200190610d0f929190611663565b5060006001600a80549050610d249190612286565b9050610d303382610ead565b6001600b83604051610d4291906121d4565b908152602001604051809103902060006101000a81548160ff0219169083151502179055505050565b6000600560008473ffffffffffffffffffffffffffffffffffffffff1673ffffffffffffffffffffffffffffffffffffffff16815260200190815260200160002060008373ffffffffffffffffffffffffffffffffffffffff1673ffffffffffffffffffffffffffffffffffffffff16815260200190815260200160002060009054906101000a900460ff16905092915050565b6000806002600084815260200190815260200160002060009054906101000a900473ffffffffffffffffffffffffffffffffffffffff169050600073ffffffffffffffffffffffffffffffffffffffff168173ffffffffffffffffffffffffffffffffffffffff161415915050919050565b610e7b3382610ece565b610e8457600080fd5b610e8f838383610fac565b505050565b610e9e83826111f2565b610ea88282611394565b505050565b610eb78282611458565b610ec08161161a565b610eca8282611394565b5050565b6000610ed982610dff565b610f18576040517f08c379a0000000000000000000000000000000000000000000000000000000008152600401610f0f9061232c565b60405180910390fd5b6000610f2383610837565b90508373ffffffffffffffffffffffffffffffffffffffff168173ffffffffffffffffffffffffffffffffffffffff161480610f9257508373ffffffffffffffffffffffffffffffffffffffff16610f7a846103d6565b73ffffffffffffffffffffffffffffffffffffffff16145b80610fa35750610fa28185610d6b565b5b91505092915050565b600073ffffffffffffffffffffffffffffffffffffffff168273ffffffffffffffffffffffffffffffffffffffff16141561101c576040517f08c379a0000000000000000000000000000000000000000000000000000000008152600401611013906123be565b60405180910390fd5b8273ffffffffffffffffffffffffffffffffffffffff1661103c82610837565b73ffffffffffffffffffffffffffffffffffffffff1614611092576040517f08c379a000000000000000000000000000000000000000000000000000000000815260040161108990612450565b60405180910390fd5b6001600360008573ffffffffffffffffffffffffffffffffffffffff1673ffffffffffffffffffffffffffffffffffffffff16815260200190815260200160002060008282546110e29190612286565b925050819055506001600360008473ffffffffffffffffffffffffffffffffffffffff1673ffffffffffffffffffffffffffffffffffffffff16815260200190815260200160002060008282546111399190612470565b92505081905550816002600083815260200190815260200160002060006101000a81548173ffffffffffffffffffffffffffffffffffffffff021916908373ffffffffffffffffffffffffffffffffffffffff160217905550808273ffffffffffffffffffffffffffffffffffffffff168473ffffffffffffffffffffffffffffffffffffffff167fddf252ad1be2c89b69c2b068fc378daa952ba7f163c4a11628f55a4df523b3ef60405160405180910390a4505050565b600060096000838152602001908152602001600020549050600860008473ffffffffffffffffffffffffffffffffffffffff1673ffffffffffffffffffffffffffffffffffffffff1681526020019081526020016000206001600860008673ffffffffffffffffffffffffffffffffffffffff1673ffffffffffffffffffffffffffffffffffffffff168152602001908152602001600020805490506112989190612286565b815481106112a9576112a8611f6d565b5b9060005260206000200154600860008573ffffffffffffffffffffffffffffffffffffffff1673ffffffffffffffffffffffffffffffffffffffff168152602001908152602001600020828154811061130557611304611f6d565b5b9060005260206000200181905550600860008473ffffffffffffffffffffffffffffffffffffffff1673ffffffffffffffffffffffffffffffffffffffff168152602001908152602001600020805480611362576113616124c6565b5b600190038181906000526020600020016000905590556009600083815260200190815260200160002060009055505050565b600860008373ffffffffffffffffffffffffffffffffffffffff1673ffffffffffffffffffffffffffffffffffffffff168152602001908152602001600020805490506009600083815260200190815260200160002081905550600860008373ffffffffffffffffffffffffffffffffffffffff1673ffffffffffffffffffffffffffffffffffffffff1681526020019081526020016000208190806001815401808255809150506001900390600052602060002001600090919091909150555050565b600073ffffffffffffffffffffffffffffffffffffffff168273ffffffffffffffffffffffffffffffffffffffff1614156114c8576040517f08c379a00000000000000000000000000000000000000000000000000000000081526004016114bf90612541565b60405180910390fd5b6114d181610dff565b15611511576040517f08c379a0000000000000000000000000000000000000000000000000000000008152600401611508906125ad565b60405180910390fd5b816002600083815260200190815260200160002060006101000a81548173ffffffffffffffffffffffffffffffffffffffff021916908373ffffffffffffffffffffffffffffffffffffffff1602179055506001600360008473ffffffffffffffffffffffffffffffffffffffff1673ffffffffffffffffffffffffffffffffffffffff16815260200190815260200160002060008282546115b39190612470565b92505081905550808273ffffffffffffffffffffffffffffffffffffffff16600073ffffffffffffffffffffffffffffffffffffffff167fddf252ad1be2c89b69c2b068fc378daa952ba7f163c4a11628f55a4df523b3ef60405160405180910390a45050565b6006805490506007600083815260200190815260200160002081905550600681908060018154018082558091505060019003906000526020600020016000909190919091505550565b82805461166f90611d19565b90600052602060002090601f01602090048101928261169157600085556116d8565b82601f106116aa57805160ff19168380011785556116d8565b828001600101855582156116d8579182015b828111156116d75782518255916020019190600101906116bc565b5b5090506116e591906116e9565b5090565b5b808211156117025760008160009055506001016116ea565b5090565b600081519050919050565b600082825260208201905092915050565b60005b83811015611740578082015181840152602081019050611725565b8381111561174f576000848401525b50505050565b6000601f19601f8301169050919050565b600061177182611706565b61177b8185611711565b935061178b818560208601611722565b61179481611755565b840191505092915050565b600060208201905081810360008301526117b98184611766565b905092915050565b6000604051905090565b600080fd5b600080fd5b6000819050919050565b6117e8816117d5565b81146117f357600080fd5b50565b600081359050611805816117df565b92915050565b600060208284031215611821576118206117cb565b5b600061182f848285016117f6565b91505092915050565b600073ffffffffffffffffffffffffffffffffffffffff82169050919050565b600061186382611838565b9050919050565b61187381611858565b82525050565b600060208201905061188e600083018461186a565b92915050565b61189d81611858565b81146118a857600080fd5b50565b6000813590506118ba81611894565b92915050565b600080604083850312156118d7576118d66117cb565b5b60006118e5858286016118ab565b92505060206118f6858286016117f6565b9150509250929050565b611909816117d5565b82525050565b60006020820190506119246000830184611900565b92915050565b600080600060608486031215611943576119426117cb565b5b6000611951868287016118ab565b9350506020611962868287016118ab565b9250506040611973868287016117f6565b9150509250925092565b600060208284031215611993576119926117cb565b5b60006119a1848285016118ab565b91505092915050565b600081519050919050565b600082825260208201905092915050565b6000819050602082019050919050565b6119df816117d5565b82525050565b60006119f183836119d6565b60208301905092915050565b6000602082019050919050565b6000611a15826119aa565b611a1f81856119b5565b9350611a2a836119c6565b8060005b83811015611a5b578151611a4288826119e5565b9750611a4d836119fd565b925050600181019050611a2e565b5085935050505092915050565b60006020820190508181036000830152611a828184611a0a565b905092915050565b60008115159050919050565b611a9f81611a8a565b8114611aaa57600080fd5b50565b600081359050611abc81611a96565b92915050565b60008060408385031215611ad957611ad86117cb565b5b6000611ae7858286016118ab565b9250506020611af885828601611aad565b9150509250929050565b600080fd5b600080fd5b7f4e487b7100000000000000000000000000000000000000000000000000000000600052604160045260246000fd5b611b4482611755565b810181811067ffffffffffffffff82111715611b6357611b62611b0c565b5b80604052505050565b6000611b766117c1565b9050611b828282611b3b565b919050565b600067ffffffffffffffff821115611ba257611ba1611b0c565b5b611bab82611755565b9050602081019050919050565b82818337600083830152505050565b6000611bda611bd584611b87565b611b6c565b905082815260208101848484011115611bf657611bf5611b07565b5b611c01848285611bb8565b509392505050565b600082601f830112611c1e57611c1d611b02565b5b8135611c2e848260208601611bc7565b91505092915050565b600060208284031215611c4d57611c4c6117cb565b5b600082013567ffffffffffffffff811115611c6b57611c6a6117d0565b5b611c7784828501611c09565b91505092915050565b60008060408385031215611c9757611c966117cb565b5b6000611ca5858286016118ab565b9250506020611cb6858286016118ab565b9150509250929050565b611cc981611a8a565b82525050565b6000602082019050611ce46000830184611cc0565b92915050565b7f4e487b7100000000000000000000000000000000000000000000000000000000600052602260045260246000fd5b60006002820490506001821680611d3157607f821691505b60208210811415611d4557611d44611cea565b5b50919050565b7f4552433732313a20617070726f76656420717565727920666f72206e6f6e657860008201527f697374656e7420746f6b656e0000000000000000000000000000000000000000602082015250565b6000611da7602c83611711565b9150611db282611d4b565b604082019050919050565b60006020820190508181036000830152611dd681611d9a565b9050919050565b7f4552433732313a206572726f72206170726f76696e6720746f2063757272656e60008201527f74206f776e657200000000000000000000000000000000000000000000000000602082015250565b6000611e39602783611711565b9150611e4482611ddd565b604082019050919050565b60006020820190508181036000830152611e6881611e2c565b9050919050565b7f4552433732313a2063757272656e742063616c6c6572206973206e6f7420746860008201527f65206f776e6572206f72206e6f7420617070726f76656420666f7220616c6c00602082015250565b6000611ecb603f83611711565b9150611ed682611e6f565b604082019050919050565b60006020820190508181036000830152611efa81611ebe565b9050919050565b7f6f776e657220696e646578206973206f7574206f6620626f756e647300000000600082015250565b6000611f37601c83611711565b9150611f4282611f01565b602082019050919050565b60006020820190508181036000830152611f6681611f2a565b9050919050565b7f4e487b7100000000000000000000000000000000000000000000000000000000600052603260045260246000fd5b7f676c6f62616c20696e646578206973206f7574206f6620626f756e6473000000600082015250565b6000611fd2601d83611711565b9150611fdd82611f9c565b602082019050919050565b6000602082019050818103600083015261200181611fc5565b9050919050565b7f4552433732313a206f776e657220717565727920666f72206e6f6e2d6578697360008201527f74696e6720746f6b656e00000000000000000000000000000000000000000000602082015250565b6000612064602a83611711565b915061206f82612008565b604082019050919050565b6000602082019050818103600083015261209381612057565b9050919050565b7f4552433732313a20617070726f766520746f2063616c6c657200000000000000600082015250565b60006120d0601983611711565b91506120db8261209a565b602082019050919050565b600060208201905081810360008301526120ff816120c3565b9050919050565b7f4552433732313a206f70657261746f722068617665207a65726f20616464726560008201527f7373000000000000000000000000000000000000000000000000000000000000602082015250565b6000612162602283611711565b915061216d82612106565b604082019050919050565b6000602082019050818103600083015261219181612155565b9050919050565b600081905092915050565b60006121ae82611706565b6121b88185612198565b93506121c8818560208601611722565b80840191505092915050565b60006121e082846121a3565b915081905092915050565b7f4572726f72202d204272617a756b6120616c7265616479206578697374730000600082015250565b6000612221601e83611711565b915061222c826121eb565b602082019050919050565b6000602082019050818103600083015261225081612214565b9050919050565b7f4e487b7100000000000000000000000000000000000000000000000000000000600052601160045260246000fd5b6000612291826117d5565b915061229c836117d5565b9250828210156122af576122ae612257565b5b828203905092915050565b7f4552433732313a206f70657261746f7220717565727920666f72206e6f6e657860008201527f697374656e7420746f6b656e0000000000000000000000000000000000000000602082015250565b6000612316602c83611711565b9150612321826122ba565b604082019050919050565b6000602082019050818103600083015261234581612309565b9050919050565b7f4552433732313a206572726f72207768696c65207472616e73666572696e672060008201527f746f207a65726f20616464726573730000000000000000000000000000000000602082015250565b60006123a8602f83611711565b91506123b38261234c565b604082019050919050565b600060208201905081810360008301526123d78161239b565b9050919050565b7f4552433732313a20746f6b656e206e6f74206f776e6564206f7220646f206e6f60008201527f7420657869737400000000000000000000000000000000000000000000000000602082015250565b600061243a602783611711565b9150612445826123de565b604082019050919050565b600060208201905081810360008301526124698161242d565b9050919050565b600061247b826117d5565b9150612486836117d5565b9250827fffffffffffffffffffffffffffffffffffffffffffffffffffffffffffffffff038211156124bb576124ba612257565b5b828201905092915050565b7f4e487b7100000000000000000000000000000000000000000000000000000000600052603160045260246000fd5b7f4552433732313a206d696e74696e6720746865207a65726f2061646472657373600082015250565b600061252b602083611711565b9150612536826124f5565b602082019050919050565b6000602082019050818103600083015261255a8161251e565b9050919050565b7f4552433732313a20746f6b656e20616c7265616479206d696e74656400000000600082015250565b6000612597601c83611711565b91506125a282612561565b602082019050919050565b600060208201905081810360008301526125c68161258a565b905091905056fea26469706673582212200bfcd7368cb8e49fc7b7d725601cdea93f94e71cf814330c928ea108c2d0a1ce64736f6c634300080a0033",
  "immutableReferences": {},
  "source": "// SPDX-License-Identifier: MIT\npragma solidity ^0.8.0;\n\nimport \"./ERC721Connector.sol\";\n\ncontract Brazukas is ERC721Connector {\n    string[] public BrazukasArray;\n\n    mapping(string => bool) _brazukaExists;\n\n    function mint(string memory _brazuka) public {\n        require(!_brazukaExists[_brazuka], \"Error - Brazuka already exists\");\n\n        BrazukasArray.push(_brazuka);\n        uint256 _id = BrazukasArray.length - 1;\n\n        _mint(msg.sender, _id);\n\n        _brazukaExists[_brazuka] = true;\n    }\n\n    constructor() ERC721Connector(\"Brazukas\", \"BZKS\") {}\n}\n",
  "sourcePath": "/Users/gabriel/Documents/Git/nft-marketplace/src/contracts/Brazukas.sol",
  "compiler": {
    "name": "solc",
    "version": "0.8.10+commit.fc410830.Emscripten.clang"
  },
  "schemaVersion": "3.4.3",
  "updatedAt": "2021-11-29T19:42:03.622Z",
  "networkType": "ethereum",
  "devdoc": {
    "kind": "dev",
    "methods": {},
    "version": 1
  },
  "userdoc": {
    "kind": "user",
    "methods": {},
    "version": 1
  }
}