{
  "contractName": "ERC721Enumerable",
  "abi": [
    {
      "anonymous": false,
      "inputs": [
        {
          "indexed": true,
          "internalType": "address",
          "name": "_owner",
          "type": "address"
        },
        {
          "indexed": true,
          "internalType": "address",
          "name": "_approved",
          "type": "address"
        },
        {
          "indexed": true,
          "internalType": "uint256",
          "name": "_tokenId",
          "type": "uint256"
        }
      ],
      "name": "Approval",
      "type": "event"
    },
    {
      "anonymous": false,
      "inputs": [
        {
          "indexed": true,
          "internalType": "address",
          "name": "_owner",
          "type": "address"
        },
        {
          "indexed": true,
          "internalType": "address",
          "name": "_operator",
          "type": "address"
        },
        {
          "indexed": false,
          "internalType": "bool",
          "name": "_approved",
          "type": "bool"
        }
      ],
      "name": "ApprovalForAll",
      "type": "event"
    },
    {
      "anonymous": false,
      "inputs": [
        {
          "indexed": true,
          "internalType": "address",
          "name": "_from",
          "type": "address"
        },
        {
          "indexed": true,
          "internalType": "address",
          "name": "_to",
          "type": "address"
        },
        {
          "indexed": true,
          "internalType": "uint256",
          "name": "_tokenId",
          "type": "uint256"
        }
      ],
      "name": "Transfer",
      "type": "event"
    },
    {
      "inputs": [
        {
          "internalType": "address",
          "name": "_to",
          "type": "address"
        },
        {
          "internalType": "uint256",
          "name": "_tokenId",
          "type": "uint256"
        }
      ],
      "name": "approve",
      "outputs": [],
      "stateMutability": "nonpayable",
      "type": "function"
    },
    {
      "inputs": [
        {
          "internalType": "address",
          "name": "_owner",
          "type": "address"
        }
      ],
      "name": "balanceOf",
      "outputs": [
        {
          "internalType": "uint256",
          "name": "",
          "type": "uint256"
        }
      ],
      "stateMutability": "view",
      "type": "function"
    },
    {
      "inputs": [
        {
          "internalType": "uint256",
          "name": "tokenId",
          "type": "uint256"
        }
      ],
      "name": "getApproved",
      "outputs": [
        {
          "internalType": "address",
          "name": "",
          "type": "address"
        }
      ],
      "stateMutability": "view",
      "type": "function"
    },
    {
      "inputs": [
        {
          "internalType": "address",
          "name": "owner",
          "type": "address"
        },
        {
          "internalType": "address",
          "name": "operator",
          "type": "address"
        }
      ],
      "name": "isApprovedForAll",
      "outputs": [
        {
          "internalType": "bool",
          "name": "",
          "type": "bool"
        }
      ],
      "stateMutability": "view",
      "type": "function"
    },
    {
      "inputs": [
        {
          "internalType": "uint256",
          "name": "_id",
          "type": "uint256"
        }
      ],
      "name": "ownerOf",
      "outputs": [
        {
          "internalType": "address",
          "name": "",
          "type": "address"
        }
      ],
      "stateMutability": "view",
      "type": "function"
    },
    {
      "inputs": [
        {
          "internalType": "address",
          "name": "operator",
          "type": "address"
        },
        {
          "internalType": "bool",
          "name": "approved",
          "type": "bool"
        }
      ],
      "name": "setApprovalForAll",
      "outputs": [],
      "stateMutability": "nonpayable",
      "type": "function"
    },
    {
      "inputs": [
        {
          "internalType": "bytes4",
          "name": "interfaceId",
          "type": "bytes4"
        }
      ],
      "name": "supportsInterface",
      "outputs": [
        {
          "internalType": "bool",
          "name": "",
          "type": "bool"
        }
      ],
      "stateMutability": "view",
      "type": "function"
    },
    {
      "inputs": [
        {
          "internalType": "address",
          "name": "_from",
          "type": "address"
        },
        {
          "internalType": "address",
          "name": "_to",
          "type": "address"
        },
        {
          "internalType": "uint256",
          "name": "_tokenId",
          "type": "uint256"
        }
      ],
      "name": "transferFrom",
      "outputs": [],
      "stateMutability": "nonpayable",
      "type": "function"
    },
    {
      "inputs": [
        {
          "internalType": "uint256",
          "name": "index",
          "type": "uint256"
        }
      ],
      "name": "tokenByIndex",
      "outputs": [
        {
          "internalType": "uint256",
          "name": "",
          "type": "uint256"
        }
      ],
      "stateMutability": "view",
      "type": "function"
    },
    {
      "inputs": [
        {
          "internalType": "address",
          "name": "owner",
          "type": "address"
        },
        {
          "internalType": "uint256",
          "name": "index",
          "type": "uint256"
        }
      ],
      "name": "tokenOfOwnerByIndex",
      "outputs": [
        {
          "internalType": "uint256",
          "name": "",
          "type": "uint256"
        }
      ],
      "stateMutability": "view",
      "type": "function"
    },
    {
      "inputs": [],
      "name": "totalSupply",
      "outputs": [
        {
          "internalType": "uint256",
          "name": "",
          "type": "uint256"
        }
      ],
      "stateMutability": "view",
      "type": "function"
    }
  ],
  "bytecode": "0x60806040523480156200001157600080fd5b5060007f9d2e11cb7b07ae43fd737a030d1d2791771799a8a567e5c0717acee8c589328a905062000048816200004f60201b60201c565b5062000167565b63ffffffff60e01b817bffffffffffffffffffffffffffffffffffffffffffffffffffffffff19161415620000bb576040517f08c379a0000000000000000000000000000000000000000000000000000000008152600401620000b29062000145565b60405180910390fd5b50565b600082825260208201905092915050565b7f4552433136353a20496e76616c696420696e746572666163652072657175657360008201527f7400000000000000000000000000000000000000000000000000000000000000602082015250565b60006200012d602183620000be565b91506200013a82620000cf565b604082019050919050565b6000602082019050818103600083015262000160816200011e565b9050919050565b611adb80620001776000396000f3fe608060405234801561001057600080fd5b50600436106100a95760003560e01c80632f745c59116100715780632f745c59146101645780634f6ccce7146101945780636352211e146101c457806370a08231146101f4578063a22cb46514610224578063e985e9c514610240576100a9565b806301ffc9a7146100ae578063081812fc146100de578063095ea7b31461010e57806318160ddd1461012a57806323b872dd14610148575b600080fd5b6100c860048036038101906100c391906110c5565b610270565b6040516100d5919061110d565b60405180910390f35b6100f860048036038101906100f3919061115e565b6102d7565b60405161010591906111cc565b60405180910390f35b61012860048036038101906101239190611213565b61035c565b005b610132610509565b60405161013f9190611262565b60405180910390f35b610162600480360381019061015d919061127d565b610516565b005b61017e60048036038101906101799190611213565b610531565b60405161018b9190611262565b60405180910390f35b6101ae60048036038101906101a9919061115e565b61061b565b6040516101bb9190611262565b60405180910390f35b6101de60048036038101906101d9919061115e565b61068c565b6040516101eb91906111cc565b60405180910390f35b61020e600480360381019061020991906112d0565b61073e565b60405161021b9190611262565b60405180910390f35b61023e60048036038101906102399190611329565b6107c0565b005b61025a60048036038101906102559190611369565b61099c565b604051610267919061110d565b60405180910390f35b6000806000837bffffffffffffffffffffffffffffffffffffffffffffffffffffffff19167bffffffffffffffffffffffffffffffffffffffffffffffffffffffff1916815260200190815260200160002060009054906101000a900460ff169050919050565b60006102e282610a30565b610321576040517f08c379a00000000000000000000000000000000000000000000000000000000081526004016103189061142c565b60405180910390fd5b6003600083815260200190815260200160002060009054906101000a900473ffffffffffffffffffffffffffffffffffffffff169050919050565b60006103678261068c565b90508073ffffffffffffffffffffffffffffffffffffffff168373ffffffffffffffffffffffffffffffffffffffff1614156103d8576040517f08c379a00000000000000000000000000000000000000000000000000000000081526004016103cf906114be565b60405180910390fd5b8073ffffffffffffffffffffffffffffffffffffffff163373ffffffffffffffffffffffffffffffffffffffff1614806104185750610417813361099c565b5b610457576040517f08c379a000000000000000000000000000000000000000000000000000000000815260040161044e90611550565b60405180910390fd5b826003600084815260200190815260200160002060006101000a81548173ffffffffffffffffffffffffffffffffffffffff021916908373ffffffffffffffffffffffffffffffffffffffff160217905550818373ffffffffffffffffffffffffffffffffffffffff168273ffffffffffffffffffffffffffffffffffffffff167f8c5be1e5ebec7d5bd14f71427d1e84f3dd0314c0f7b2291e5b200ac8c7c3b92560405160405180910390a4505050565b6000600580549050905090565b610521838383610aa2565b61052c838383610ac5565b505050565b6000600760008473ffffffffffffffffffffffffffffffffffffffff1673ffffffffffffffffffffffffffffffffffffffff1681526020019081526020016000208054905082106105b7576040517f08c379a00000000000000000000000000000000000000000000000000000000081526004016105ae906115bc565b60405180910390fd5b600760008473ffffffffffffffffffffffffffffffffffffffff1673ffffffffffffffffffffffffffffffffffffffff1681526020019081526020016000208281548110610608576106076115dc565b5b9060005260206000200154905092915050565b6000610625610509565b8210610666576040517f08c379a000000000000000000000000000000000000000000000000000000000815260040161065d90611657565b60405180910390fd5b6005828154811061067a576106796115dc565b5b90600052602060002001549050919050565b6000806001600084815260200190815260200160002060009054906101000a900473ffffffffffffffffffffffffffffffffffffffff169050600073ffffffffffffffffffffffffffffffffffffffff168173ffffffffffffffffffffffffffffffffffffffff161415610735576040517f08c379a000000000000000000000000000000000000000000000000000000000815260040161072c906116e9565b60405180910390fd5b80915050919050565b60008073ffffffffffffffffffffffffffffffffffffffff168273ffffffffffffffffffffffffffffffffffffffff16141561077957600080fd5b600260008373ffffffffffffffffffffffffffffffffffffffff1673ffffffffffffffffffffffffffffffffffffffff168152602001908152602001600020549050919050565b8173ffffffffffffffffffffffffffffffffffffffff163373ffffffffffffffffffffffffffffffffffffffff16141561082f576040517f08c379a000000000000000000000000000000000000000000000000000000000815260040161082690611755565b60405180910390fd5b600073ffffffffffffffffffffffffffffffffffffffff168273ffffffffffffffffffffffffffffffffffffffff16141561089f576040517f08c379a0000000000000000000000000000000000000000000000000000000008152600401610896906117e7565b60405180910390fd5b80600460003373ffffffffffffffffffffffffffffffffffffffff1673ffffffffffffffffffffffffffffffffffffffff16815260200190815260200160002060008473ffffffffffffffffffffffffffffffffffffffff1673ffffffffffffffffffffffffffffffffffffffff16815260200190815260200160002060006101000a81548160ff0219169083151502179055508173ffffffffffffffffffffffffffffffffffffffff163373ffffffffffffffffffffffffffffffffffffffff167f17307eab39ab6107e8899845ad3d59bd9653f200f220920489ca2b5937696c3183604051610990919061110d565b60405180910390a35050565b6000600460008473ffffffffffffffffffffffffffffffffffffffff1673ffffffffffffffffffffffffffffffffffffffff16815260200190815260200160002060008373ffffffffffffffffffffffffffffffffffffffff1673ffffffffffffffffffffffffffffffffffffffff16815260200190815260200160002060009054906101000a900460ff16905092915050565b6000806001600084815260200190815260200160002060009054906101000a900473ffffffffffffffffffffffffffffffffffffffff169050600073ffffffffffffffffffffffffffffffffffffffff168173ffffffffffffffffffffffffffffffffffffffff161415915050919050565b610aac3382610ade565b610ab557600080fd5b610ac0838383610bbc565b505050565b610acf8382610e02565b610ad98282610fa4565b505050565b6000610ae982610a30565b610b28576040517f08c379a0000000000000000000000000000000000000000000000000000000008152600401610b1f90611879565b60405180910390fd5b6000610b338361068c565b90508373ffffffffffffffffffffffffffffffffffffffff168173ffffffffffffffffffffffffffffffffffffffff161480610ba257508373ffffffffffffffffffffffffffffffffffffffff16610b8a846102d7565b73ffffffffffffffffffffffffffffffffffffffff16145b80610bb35750610bb2818561099c565b5b91505092915050565b600073ffffffffffffffffffffffffffffffffffffffff168273ffffffffffffffffffffffffffffffffffffffff161415610c2c576040517f08c379a0000000000000000000000000000000000000000000000000000000008152600401610c239061190b565b60405180910390fd5b8273ffffffffffffffffffffffffffffffffffffffff16610c4c8261068c565b73ffffffffffffffffffffffffffffffffffffffff1614610ca2576040517f08c379a0000000000000000000000000000000000000000000000000000000008152600401610c999061199d565b60405180910390fd5b6001600260008573ffffffffffffffffffffffffffffffffffffffff1673ffffffffffffffffffffffffffffffffffffffff1681526020019081526020016000206000828254610cf291906119ec565b925050819055506001600260008473ffffffffffffffffffffffffffffffffffffffff1673ffffffffffffffffffffffffffffffffffffffff1681526020019081526020016000206000828254610d499190611a20565b92505081905550816001600083815260200190815260200160002060006101000a81548173ffffffffffffffffffffffffffffffffffffffff021916908373ffffffffffffffffffffffffffffffffffffffff160217905550808273ffffffffffffffffffffffffffffffffffffffff168473ffffffffffffffffffffffffffffffffffffffff167fddf252ad1be2c89b69c2b068fc378daa952ba7f163c4a11628f55a4df523b3ef60405160405180910390a4505050565b600060086000838152602001908152602001600020549050600760008473ffffffffffffffffffffffffffffffffffffffff1673ffffffffffffffffffffffffffffffffffffffff1681526020019081526020016000206001600760008673ffffffffffffffffffffffffffffffffffffffff1673ffffffffffffffffffffffffffffffffffffffff16815260200190815260200160002080549050610ea891906119ec565b81548110610eb957610eb86115dc565b5b9060005260206000200154600760008573ffffffffffffffffffffffffffffffffffffffff1673ffffffffffffffffffffffffffffffffffffffff1681526020019081526020016000208281548110610f1557610f146115dc565b5b9060005260206000200181905550600760008473ffffffffffffffffffffffffffffffffffffffff1673ffffffffffffffffffffffffffffffffffffffff168152602001908152602001600020805480610f7257610f71611a76565b5b600190038181906000526020600020016000905590556008600083815260200190815260200160002060009055505050565b600760008373ffffffffffffffffffffffffffffffffffffffff1673ffffffffffffffffffffffffffffffffffffffff168152602001908152602001600020805490506008600083815260200190815260200160002081905550600760008373ffffffffffffffffffffffffffffffffffffffff1673ffffffffffffffffffffffffffffffffffffffff1681526020019081526020016000208190806001815401808255809150506001900390600052602060002001600090919091909150555050565b600080fd5b60007fffffffff0000000000000000000000000000000000000000000000000000000082169050919050565b6110a28161106d565b81146110ad57600080fd5b50565b6000813590506110bf81611099565b92915050565b6000602082840312156110db576110da611068565b5b60006110e9848285016110b0565b91505092915050565b60008115159050919050565b611107816110f2565b82525050565b600060208201905061112260008301846110fe565b92915050565b6000819050919050565b61113b81611128565b811461114657600080fd5b50565b60008135905061115881611132565b92915050565b60006020828403121561117457611173611068565b5b600061118284828501611149565b91505092915050565b600073ffffffffffffffffffffffffffffffffffffffff82169050919050565b60006111b68261118b565b9050919050565b6111c6816111ab565b82525050565b60006020820190506111e160008301846111bd565b92915050565b6111f0816111ab565b81146111fb57600080fd5b50565b60008135905061120d816111e7565b92915050565b6000806040838503121561122a57611229611068565b5b6000611238858286016111fe565b925050602061124985828601611149565b9150509250929050565b61125c81611128565b82525050565b60006020820190506112776000830184611253565b92915050565b60008060006060848603121561129657611295611068565b5b60006112a4868287016111fe565b93505060206112b5868287016111fe565b92505060406112c686828701611149565b9150509250925092565b6000602082840312156112e6576112e5611068565b5b60006112f4848285016111fe565b91505092915050565b611306816110f2565b811461131157600080fd5b50565b600081359050611323816112fd565b92915050565b600080604083850312156113405761133f611068565b5b600061134e858286016111fe565b925050602061135f85828601611314565b9150509250929050565b600080604083850312156113805761137f611068565b5b600061138e858286016111fe565b925050602061139f858286016111fe565b9150509250929050565b600082825260208201905092915050565b7f4552433732313a20617070726f76656420717565727920666f72206e6f6e657860008201527f697374656e7420746f6b656e0000000000000000000000000000000000000000602082015250565b6000611416602c836113a9565b9150611421826113ba565b604082019050919050565b6000602082019050818103600083015261144581611409565b9050919050565b7f4552433732313a206572726f72206170726f76696e6720746f2063757272656e60008201527f74206f776e657200000000000000000000000000000000000000000000000000602082015250565b60006114a86027836113a9565b91506114b38261144c565b604082019050919050565b600060208201905081810360008301526114d78161149b565b9050919050565b7f4552433732313a2063757272656e742063616c6c6572206973206e6f7420746860008201527f65206f776e6572206f72206e6f7420617070726f76656420666f7220616c6c00602082015250565b600061153a603f836113a9565b9150611545826114de565b604082019050919050565b600060208201905081810360008301526115698161152d565b9050919050565b7f6f776e657220696e646578206973206f7574206f6620626f756e647300000000600082015250565b60006115a6601c836113a9565b91506115b182611570565b602082019050919050565b600060208201905081810360008301526115d581611599565b9050919050565b7f4e487b7100000000000000000000000000000000000000000000000000000000600052603260045260246000fd5b7f676c6f62616c20696e646578206973206f7574206f6620626f756e6473000000600082015250565b6000611641601d836113a9565b915061164c8261160b565b602082019050919050565b6000602082019050818103600083015261167081611634565b9050919050565b7f4552433732313a206f776e657220717565727920666f72206e6f6e2d6578697360008201527f74696e6720746f6b656e00000000000000000000000000000000000000000000602082015250565b60006116d3602a836113a9565b91506116de82611677565b604082019050919050565b60006020820190508181036000830152611702816116c6565b9050919050565b7f4552433732313a20617070726f766520746f2063616c6c657200000000000000600082015250565b600061173f6019836113a9565b915061174a82611709565b602082019050919050565b6000602082019050818103600083015261176e81611732565b9050919050565b7f4552433732313a206f70657261746f722068617665207a65726f20616464726560008201527f7373000000000000000000000000000000000000000000000000000000000000602082015250565b60006117d16022836113a9565b91506117dc82611775565b604082019050919050565b60006020820190508181036000830152611800816117c4565b9050919050565b7f4552433732313a206f70657261746f7220717565727920666f72206e6f6e657860008201527f697374656e7420746f6b656e0000000000000000000000000000000000000000602082015250565b6000611863602c836113a9565b915061186e82611807565b604082019050919050565b6000602082019050818103600083015261189281611856565b9050919050565b7f4552433732313a206572726f72207768696c65207472616e73666572696e672060008201527f746f207a65726f20616464726573730000000000000000000000000000000000602082015250565b60006118f5602f836113a9565b915061190082611899565b604082019050919050565b60006020820190508181036000830152611924816118e8565b9050919050565b7f4552433732313a20746f6b656e206e6f74206f776e6564206f7220646f206e6f60008201527f7420657869737400000000000000000000000000000000000000000000000000602082015250565b60006119876027836113a9565b91506119928261192b565b604082019050919050565b600060208201905081810360008301526119b68161197a565b9050919050565b7f4e487b7100000000000000000000000000000000000000000000000000000000600052601160045260246000fd5b60006119f782611128565b9150611a0283611128565b925082821015611a1557611a146119bd565b5b828203905092915050565b6000611a2b82611128565b9150611a3683611128565b9250827fffffffffffffffffffffffffffffffffffffffffffffffffffffffffffffffff03821115611a6b57611a6a6119bd565b5b828201905092915050565b7f4e487b7100000000000000000000000000000000000000000000000000000000600052603160045260246000fdfea2646970667358221220e3e73876b281b410e75846dd4bd52351bc98e70d73d12d13ebddadff3459513564736f6c634300080a0033",
  "immutableReferences": {},
  "source": "// SPDX-License-Identifier: MIT\npragma solidity ^0.8.0;\nimport \"./ERC721.sol\";\n\ncontract ERC721Enumerable is ERC721 {\n    uint256[] private _allTokens;\n\n    // tokenId => index in _allTokens array\n    mapping(uint256 => uint256) private _allTokensIndex;\n\n    // owner => list of all owner token ids\n    mapping(address => uint256[]) private _ownedTokens;\n\n    // tokenId  => index of the owner tokens ids\n    mapping(uint256 => uint256) private _ownedTokensIndex;\n\n    function _mint(address receiver, uint256 tokenId)\n        internal\n        override(ERC721)\n    {\n        super._mint(receiver, tokenId);\n        _addTokensToAllTokensEnumeration(tokenId);\n        _addTokensToOwnerEnumeration(receiver, tokenId);\n    }\n\n    function transferFrom(\n        address _from,\n        address _to,\n        uint256 _tokenId\n    ) public override(ERC721) {\n        super.transferFrom(_from, _to, _tokenId);\n        _transferTokensToOwnerEnumeration(_from, _to, _tokenId);\n    }\n\n    function _transferTokensToOwnerEnumeration(\n        address _from,\n        address _to,\n        uint256 _tokenId\n    ) internal {\n        _removeTokensToOwnerEnumeration(_from, _tokenId);\n        _addTokensToOwnerEnumeration(_to, _tokenId);\n    }\n\n    function _removeTokensToOwnerEnumeration(address _from, uint256 _tokenId)\n        internal\n    {\n        uint256 index = _ownedTokensIndex[_tokenId];\n\n        // Defining specifig index as the last of array\n        _ownedTokens[_from][index] = _ownedTokens[_from][\n            _ownedTokens[_from].length - 1\n        ];\n        _ownedTokens[_from].pop();\n\n        delete _ownedTokensIndex[_tokenId];\n    }\n\n    function _addTokensToAllTokensEnumeration(uint256 tokenId) private {\n        _allTokensIndex[tokenId] = _allTokens.length;\n        _allTokens.push(tokenId);\n    }\n\n    function _addTokensToOwnerEnumeration(address to, uint256 tokenId) private {\n        _ownedTokensIndex[tokenId] = _ownedTokens[to].length;\n        _ownedTokens[to].push(tokenId);\n    }\n\n    function tokenByIndex(uint256 index) public view returns (uint256) {\n        require(index < totalSupply(), \"global index is out of bounds\");\n        return _allTokens[index];\n    }\n\n    function tokenOfOwnerByIndex(address owner, uint256 index)\n        public\n        view\n        returns (uint256)\n    {\n        require(\n            index < _ownedTokens[owner].length,\n            \"owner index is out of bounds\"\n        );\n        return _ownedTokens[owner][index];\n    }\n\n    function totalSupply() public view returns (uint256) {\n        return _allTokens.length;\n    }\n}\n",
  "sourcePath": "/Users/gabriel/Documents/Git/nft-marketplace/src/contracts/ERC721Enumerable.sol",
  "compiler": {
    "name": "solc",
    "version": "0.8.10+commit.fc410830.Emscripten.clang"
  },
  "schemaVersion": "3.4.3",
  "updatedAt": "2021-12-06T22:50:04.895Z",
  "devdoc": {
    "kind": "dev",
    "methods": {},
    "version": 1
  },
  "userdoc": {
    "kind": "user",
    "methods": {},
    "version": 1
  }
}