{
  "contractName": "ERC721Connector",
  "abi": [
    {
      "inputs": [
        {
          "internalType": "string",
          "name": "name",
          "type": "string"
        },
        {
          "internalType": "string",
          "name": "symbol",
          "type": "string"
        }
      ],
      "stateMutability": "nonpayable",
      "type": "constructor"
    },
    {
      "anonymous": false,
      "inputs": [
        {
          "indexed": true,
          "internalType": "address",
          "name": "owner",
          "type": "address"
        },
        {
          "indexed": true,
          "internalType": "address",
          "name": "approved",
          "type": "address"
        },
        {
          "indexed": true,
          "internalType": "uint256",
          "name": "tokenId",
          "type": "uint256"
        }
      ],
      "name": "Approval",
      "type": "event"
    },
    {
      "anonymous": false,
      "inputs": [
        {
          "indexed": true,
          "internalType": "address",
          "name": "owner",
          "type": "address"
        },
        {
          "indexed": true,
          "internalType": "address",
          "name": "operator",
          "type": "address"
        },
        {
          "indexed": true,
          "internalType": "bool",
          "name": "approved",
          "type": "bool"
        }
      ],
      "name": "ApprovalForAll",
      "type": "event"
    },
    {
      "anonymous": false,
      "inputs": [
        {
          "indexed": true,
          "internalType": "address",
          "name": "from",
          "type": "address"
        },
        {
          "indexed": true,
          "internalType": "address",
          "name": "to",
          "type": "address"
        },
        {
          "indexed": true,
          "internalType": "uint256",
          "name": "tokenId",
          "type": "uint256"
        }
      ],
      "name": "Transfer",
      "type": "event"
    },
    {
      "inputs": [
        {
          "internalType": "address",
          "name": "_to",
          "type": "address"
        },
        {
          "internalType": "uint256",
          "name": "_tokenId",
          "type": "uint256"
        }
      ],
      "name": "approve",
      "outputs": [],
      "stateMutability": "nonpayable",
      "type": "function"
    },
    {
      "inputs": [
        {
          "internalType": "address",
          "name": "_owner",
          "type": "address"
        }
      ],
      "name": "balanceOf",
      "outputs": [
        {
          "internalType": "uint256",
          "name": "",
          "type": "uint256"
        }
      ],
      "stateMutability": "view",
      "type": "function"
    },
    {
      "inputs": [
        {
          "internalType": "uint256",
          "name": "tokenId",
          "type": "uint256"
        }
      ],
      "name": "getApproved",
      "outputs": [
        {
          "internalType": "address",
          "name": "",
          "type": "address"
        }
      ],
      "stateMutability": "view",
      "type": "function"
    },
    {
      "inputs": [
        {
          "internalType": "address",
          "name": "owner",
          "type": "address"
        },
        {
          "internalType": "address",
          "name": "operator",
          "type": "address"
        }
      ],
      "name": "isApprovedForAll",
      "outputs": [
        {
          "internalType": "bool",
          "name": "",
          "type": "bool"
        }
      ],
      "stateMutability": "view",
      "type": "function"
    },
    {
      "inputs": [],
      "name": "name",
      "outputs": [
        {
          "internalType": "string",
          "name": "",
          "type": "string"
        }
      ],
      "stateMutability": "view",
      "type": "function"
    },
    {
      "inputs": [
        {
          "internalType": "uint256",
          "name": "_id",
          "type": "uint256"
        }
      ],
      "name": "ownerOf",
      "outputs": [
        {
          "internalType": "address",
          "name": "",
          "type": "address"
        }
      ],
      "stateMutability": "view",
      "type": "function"
    },
    {
      "inputs": [
        {
          "internalType": "address",
          "name": "account",
          "type": "address"
        }
      ],
      "name": "returnAllOwnerNfts",
      "outputs": [
        {
          "internalType": "uint256[]",
          "name": "",
          "type": "uint256[]"
        }
      ],
      "stateMutability": "view",
      "type": "function"
    },
    {
      "inputs": [
        {
          "internalType": "address",
          "name": "operator",
          "type": "address"
        },
        {
          "internalType": "bool",
          "name": "approved",
          "type": "bool"
        }
      ],
      "name": "setApprovalForAll",
      "outputs": [],
      "stateMutability": "nonpayable",
      "type": "function"
    },
    {
      "inputs": [],
      "name": "symbol",
      "outputs": [
        {
          "internalType": "string",
          "name": "",
          "type": "string"
        }
      ],
      "stateMutability": "view",
      "type": "function"
    },
    {
      "inputs": [
        {
          "internalType": "uint256",
          "name": "index",
          "type": "uint256"
        }
      ],
      "name": "tokenByIndex",
      "outputs": [
        {
          "internalType": "uint256",
          "name": "",
          "type": "uint256"
        }
      ],
      "stateMutability": "view",
      "type": "function"
    },
    {
      "inputs": [
        {
          "internalType": "address",
          "name": "owner",
          "type": "address"
        },
        {
          "internalType": "uint256",
          "name": "index",
          "type": "uint256"
        }
      ],
      "name": "tokenOfOwnerByIndex",
      "outputs": [
        {
          "internalType": "uint256",
          "name": "",
          "type": "uint256"
        }
      ],
      "stateMutability": "view",
      "type": "function"
    },
    {
      "inputs": [],
      "name": "totalSupply",
      "outputs": [
        {
          "internalType": "uint256",
          "name": "",
          "type": "uint256"
        }
      ],
      "stateMutability": "view",
      "type": "function"
    },
    {
      "inputs": [
        {
          "internalType": "address",
          "name": "_from",
          "type": "address"
        },
        {
          "internalType": "address",
          "name": "_to",
          "type": "address"
        },
        {
          "internalType": "uint256",
          "name": "_tokenId",
          "type": "uint256"
        }
      ],
      "name": "transferFrom",
      "outputs": [],
      "stateMutability": "nonpayable",
      "type": "function"
    }
  ],
  "bytecode": "0x60806040523480156200001157600080fd5b5060405162001ee238038062001ee28339818101604052810190620000379190620002c2565b818181600090805190602001906200005192919062000075565b5080600190805190602001906200006a92919062000075565b5050505050620003ac565b828054620000839062000376565b90600052602060002090601f016020900481019282620000a75760008555620000f3565b82601f10620000c257805160ff1916838001178555620000f3565b82800160010185558215620000f3579182015b82811115620000f2578251825591602001919060010190620000d5565b5b50905062000102919062000106565b5090565b5b808211156200012157600081600090555060010162000107565b5090565b6000604051905090565b600080fd5b600080fd5b600080fd5b600080fd5b6000601f19601f8301169050919050565b7f4e487b7100000000000000000000000000000000000000000000000000000000600052604160045260246000fd5b6200018e8262000143565b810181811067ffffffffffffffff82111715620001b057620001af62000154565b5b80604052505050565b6000620001c562000125565b9050620001d3828262000183565b919050565b600067ffffffffffffffff821115620001f657620001f562000154565b5b620002018262000143565b9050602081019050919050565b60005b838110156200022e57808201518184015260208101905062000211565b838111156200023e576000848401525b50505050565b60006200025b6200025584620001d8565b620001b9565b9050828152602081018484840111156200027a57620002796200013e565b5b620002878482856200020e565b509392505050565b600082601f830112620002a757620002a662000139565b5b8151620002b984826020860162000244565b91505092915050565b60008060408385031215620002dc57620002db6200012f565b5b600083015167ffffffffffffffff811115620002fd57620002fc62000134565b5b6200030b858286016200028f565b925050602083015167ffffffffffffffff8111156200032f576200032e62000134565b5b6200033d858286016200028f565b9150509250929050565b7f4e487b7100000000000000000000000000000000000000000000000000000000600052602260045260246000fd5b600060028204905060018216806200038f57607f821691505b60208210811415620003a657620003a562000347565b5b50919050565b611b2680620003bc6000396000f3fe608060405234801561001057600080fd5b50600436106100cf5760003560e01c80634f6ccce71161008c5780638d594232116100665780638d5942321461023857806395d89b4114610268578063a22cb46514610286578063e985e9c5146102a2576100cf565b80634f6ccce7146101a85780636352211e146101d857806370a0823114610208576100cf565b806306fdde03146100d4578063081812fc146100f2578063095ea7b31461012257806318160ddd1461013e57806323b872dd1461015c5780632f745c5914610178575b600080fd5b6100dc6102d2565b6040516100e99190611015565b60405180910390f35b61010c60048036038101906101079190611072565b610364565b60405161011991906110e0565b60405180910390f35b61013c60048036038101906101379190611127565b6103e9565b005b610146610596565b6040516101539190611176565b60405180910390f35b61017660048036038101906101719190611191565b6105a3565b005b610192600480360381019061018d9190611127565b6105c6565b60405161019f9190611176565b60405180910390f35b6101c260048036038101906101bd9190611072565b6106b0565b6040516101cf9190611176565b60405180910390f35b6101f260048036038101906101ed9190611072565b610721565b6040516101ff91906110e0565b60405180910390f35b610222600480360381019061021d91906111e4565b6107d3565b60405161022f9190611176565b60405180910390f35b610252600480360381019061024d91906111e4565b610855565b60405161025f91906112cf565b60405180910390f35b6102706108ec565b60405161027d9190611015565b60405180910390f35b6102a0600480360381019061029b9190611329565b61097e565b005b6102bc60048036038101906102b79190611369565b610b52565b6040516102c991906113b8565b60405180910390f35b6060600080546102e190611402565b80601f016020809104026020016040519081016040528092919081815260200182805461030d90611402565b801561035a5780601f1061032f5761010080835404028352916020019161035a565b820191906000526020600020905b81548152906001019060200180831161033d57829003601f168201915b5050505050905090565b600061036f82610be6565b6103ae576040517f08c379a00000000000000000000000000000000000000000000000000000000081526004016103a5906114a6565b60405180910390fd5b6004600083815260200190815260200160002060009054906101000a900473ffffffffffffffffffffffffffffffffffffffff169050919050565b60006103f482610721565b90508073ffffffffffffffffffffffffffffffffffffffff168373ffffffffffffffffffffffffffffffffffffffff161415610465576040517f08c379a000000000000000000000000000000000000000000000000000000000815260040161045c90611538565b60405180910390fd5b8073ffffffffffffffffffffffffffffffffffffffff163373ffffffffffffffffffffffffffffffffffffffff1614806104a557506104a48133610b52565b5b6104e4576040517f08c379a00000000000000000000000000000000000000000000000000000000081526004016104db906115ca565b60405180910390fd5b826004600084815260200190815260200160002060006101000a81548173ffffffffffffffffffffffffffffffffffffffff021916908373ffffffffffffffffffffffffffffffffffffffff160217905550818373ffffffffffffffffffffffffffffffffffffffff168273ffffffffffffffffffffffffffffffffffffffff167f8c5be1e5ebec7d5bd14f71427d1e84f3dd0314c0f7b2291e5b200ac8c7c3b92560405160405180910390a4505050565b6000600680549050905090565b6105ad3382610c58565b6105b657600080fd5b6105c1838383610d36565b505050565b6000600860008473ffffffffffffffffffffffffffffffffffffffff1673ffffffffffffffffffffffffffffffffffffffff16815260200190815260200160002080549050821061064c576040517f08c379a000000000000000000000000000000000000000000000000000000000815260040161064390611636565b60405180910390fd5b600860008473ffffffffffffffffffffffffffffffffffffffff1673ffffffffffffffffffffffffffffffffffffffff168152602001908152602001600020828154811061069d5761069c611656565b5b9060005260206000200154905092915050565b60006106ba610596565b82106106fb576040517f08c379a00000000000000000000000000000000000000000000000000000000081526004016106f2906116d1565b60405180910390fd5b6006828154811061070f5761070e611656565b5b90600052602060002001549050919050565b6000806002600084815260200190815260200160002060009054906101000a900473ffffffffffffffffffffffffffffffffffffffff169050600073ffffffffffffffffffffffffffffffffffffffff168173ffffffffffffffffffffffffffffffffffffffff1614156107ca576040517f08c379a00000000000000000000000000000000000000000000000000000000081526004016107c190611763565b60405180910390fd5b80915050919050565b60008073ffffffffffffffffffffffffffffffffffffffff168273ffffffffffffffffffffffffffffffffffffffff16141561080e57600080fd5b600360008373ffffffffffffffffffffffffffffffffffffffff1673ffffffffffffffffffffffffffffffffffffffff168152602001908152602001600020549050919050565b6060600860008373ffffffffffffffffffffffffffffffffffffffff1673ffffffffffffffffffffffffffffffffffffffff1681526020019081526020016000208054806020026020016040519081016040528092919081815260200182805480156108e057602002820191906000526020600020905b8154815260200190600101908083116108cc575b50505050509050919050565b6060600180546108fb90611402565b80601f016020809104026020016040519081016040528092919081815260200182805461092790611402565b80156109745780601f1061094957610100808354040283529160200191610974565b820191906000526020600020905b81548152906001019060200180831161095757829003601f168201915b5050505050905090565b8173ffffffffffffffffffffffffffffffffffffffff163373ffffffffffffffffffffffffffffffffffffffff1614156109ed576040517f08c379a00000000000000000000000000000000000000000000000000000000081526004016109e4906117cf565b60405180910390fd5b600073ffffffffffffffffffffffffffffffffffffffff168273ffffffffffffffffffffffffffffffffffffffff161415610a5d576040517f08c379a0000000000000000000000000000000000000000000000000000000008152600401610a5490611861565b60405180910390fd5b80600560003373ffffffffffffffffffffffffffffffffffffffff1673ffffffffffffffffffffffffffffffffffffffff16815260200190815260200160002060008473ffffffffffffffffffffffffffffffffffffffff1673ffffffffffffffffffffffffffffffffffffffff16815260200190815260200160002060006101000a81548160ff0219169083151502179055508015158273ffffffffffffffffffffffffffffffffffffffff163373ffffffffffffffffffffffffffffffffffffffff167f17307eab39ab6107e8899845ad3d59bd9653f200f220920489ca2b5937696c3160405160405180910390a45050565b6000600560008473ffffffffffffffffffffffffffffffffffffffff1673ffffffffffffffffffffffffffffffffffffffff16815260200190815260200160002060008373ffffffffffffffffffffffffffffffffffffffff1673ffffffffffffffffffffffffffffffffffffffff16815260200190815260200160002060009054906101000a900460ff16905092915050565b6000806002600084815260200190815260200160002060009054906101000a900473ffffffffffffffffffffffffffffffffffffffff169050600073ffffffffffffffffffffffffffffffffffffffff168173ffffffffffffffffffffffffffffffffffffffff161415915050919050565b6000610c6382610be6565b610ca2576040517f08c379a0000000000000000000000000000000000000000000000000000000008152600401610c99906118f3565b60405180910390fd5b6000610cad83610721565b90508373ffffffffffffffffffffffffffffffffffffffff168173ffffffffffffffffffffffffffffffffffffffff161480610d1c57508373ffffffffffffffffffffffffffffffffffffffff16610d0484610364565b73ffffffffffffffffffffffffffffffffffffffff16145b80610d2d5750610d2c8185610b52565b5b91505092915050565b600073ffffffffffffffffffffffffffffffffffffffff168273ffffffffffffffffffffffffffffffffffffffff161415610da6576040517f08c379a0000000000000000000000000000000000000000000000000000000008152600401610d9d90611985565b60405180910390fd5b8273ffffffffffffffffffffffffffffffffffffffff16610dc682610721565b73ffffffffffffffffffffffffffffffffffffffff1614610e1c576040517f08c379a0000000000000000000000000000000000000000000000000000000008152600401610e1390611a17565b60405180910390fd5b6001600360008573ffffffffffffffffffffffffffffffffffffffff1673ffffffffffffffffffffffffffffffffffffffff1681526020019081526020016000206000828254610e6c9190611a66565b925050819055506001600360008473ffffffffffffffffffffffffffffffffffffffff1673ffffffffffffffffffffffffffffffffffffffff1681526020019081526020016000206000828254610ec39190611a9a565b92505081905550816002600083815260200190815260200160002060006101000a81548173ffffffffffffffffffffffffffffffffffffffff021916908373ffffffffffffffffffffffffffffffffffffffff160217905550808273ffffffffffffffffffffffffffffffffffffffff168473ffffffffffffffffffffffffffffffffffffffff167fddf252ad1be2c89b69c2b068fc378daa952ba7f163c4a11628f55a4df523b3ef60405160405180910390a4505050565b600081519050919050565b600082825260208201905092915050565b60005b83811015610fb6578082015181840152602081019050610f9b565b83811115610fc5576000848401525b50505050565b6000601f19601f8301169050919050565b6000610fe782610f7c565b610ff18185610f87565b9350611001818560208601610f98565b61100a81610fcb565b840191505092915050565b6000602082019050818103600083015261102f8184610fdc565b905092915050565b600080fd5b6000819050919050565b61104f8161103c565b811461105a57600080fd5b50565b60008135905061106c81611046565b92915050565b60006020828403121561108857611087611037565b5b60006110968482850161105d565b91505092915050565b600073ffffffffffffffffffffffffffffffffffffffff82169050919050565b60006110ca8261109f565b9050919050565b6110da816110bf565b82525050565b60006020820190506110f560008301846110d1565b92915050565b611104816110bf565b811461110f57600080fd5b50565b600081359050611121816110fb565b92915050565b6000806040838503121561113e5761113d611037565b5b600061114c85828601611112565b925050602061115d8582860161105d565b9150509250929050565b6111708161103c565b82525050565b600060208201905061118b6000830184611167565b92915050565b6000806000606084860312156111aa576111a9611037565b5b60006111b886828701611112565b93505060206111c986828701611112565b92505060406111da8682870161105d565b9150509250925092565b6000602082840312156111fa576111f9611037565b5b600061120884828501611112565b91505092915050565b600081519050919050565b600082825260208201905092915050565b6000819050602082019050919050565b6112468161103c565b82525050565b6000611258838361123d565b60208301905092915050565b6000602082019050919050565b600061127c82611211565b611286818561121c565b93506112918361122d565b8060005b838110156112c25781516112a9888261124c565b97506112b483611264565b925050600181019050611295565b5085935050505092915050565b600060208201905081810360008301526112e98184611271565b905092915050565b60008115159050919050565b611306816112f1565b811461131157600080fd5b50565b600081359050611323816112fd565b92915050565b600080604083850312156113405761133f611037565b5b600061134e85828601611112565b925050602061135f85828601611314565b9150509250929050565b600080604083850312156113805761137f611037565b5b600061138e85828601611112565b925050602061139f85828601611112565b9150509250929050565b6113b2816112f1565b82525050565b60006020820190506113cd60008301846113a9565b92915050565b7f4e487b7100000000000000000000000000000000000000000000000000000000600052602260045260246000fd5b6000600282049050600182168061141a57607f821691505b6020821081141561142e5761142d6113d3565b5b50919050565b7f4552433732313a20617070726f76656420717565727920666f72206e6f6e657860008201527f697374656e7420746f6b656e0000000000000000000000000000000000000000602082015250565b6000611490602c83610f87565b915061149b82611434565b604082019050919050565b600060208201905081810360008301526114bf81611483565b9050919050565b7f4552433732313a206572726f72206170726f76696e6720746f2063757272656e60008201527f74206f776e657200000000000000000000000000000000000000000000000000602082015250565b6000611522602783610f87565b915061152d826114c6565b604082019050919050565b6000602082019050818103600083015261155181611515565b9050919050565b7f4552433732313a2063757272656e742063616c6c6572206973206e6f7420746860008201527f65206f776e6572206f72206e6f7420617070726f76656420666f7220616c6c00602082015250565b60006115b4603f83610f87565b91506115bf82611558565b604082019050919050565b600060208201905081810360008301526115e3816115a7565b9050919050565b7f6f776e657220696e646578206973206f7574206f6620626f756e647300000000600082015250565b6000611620601c83610f87565b915061162b826115ea565b602082019050919050565b6000602082019050818103600083015261164f81611613565b9050919050565b7f4e487b7100000000000000000000000000000000000000000000000000000000600052603260045260246000fd5b7f676c6f62616c20696e646578206973206f7574206f6620626f756e6473000000600082015250565b60006116bb601d83610f87565b91506116c682611685565b602082019050919050565b600060208201905081810360008301526116ea816116ae565b9050919050565b7f4552433732313a206f776e657220717565727920666f72206e6f6e2d6578697360008201527f74696e6720746f6b656e00000000000000000000000000000000000000000000602082015250565b600061174d602a83610f87565b9150611758826116f1565b604082019050919050565b6000602082019050818103600083015261177c81611740565b9050919050565b7f4552433732313a20617070726f766520746f2063616c6c657200000000000000600082015250565b60006117b9601983610f87565b91506117c482611783565b602082019050919050565b600060208201905081810360008301526117e8816117ac565b9050919050565b7f4552433732313a206f70657261746f722068617665207a65726f20616464726560008201527f7373000000000000000000000000000000000000000000000000000000000000602082015250565b600061184b602283610f87565b9150611856826117ef565b604082019050919050565b6000602082019050818103600083015261187a8161183e565b9050919050565b7f4552433732313a206f70657261746f7220717565727920666f72206e6f6e657860008201527f697374656e7420746f6b656e0000000000000000000000000000000000000000602082015250565b60006118dd602c83610f87565b91506118e882611881565b604082019050919050565b6000602082019050818103600083015261190c816118d0565b9050919050565b7f4552433732313a206572726f72207768696c65207472616e73666572696e672060008201527f746f207a65726f20616464726573730000000000000000000000000000000000602082015250565b600061196f602f83610f87565b915061197a82611913565b604082019050919050565b6000602082019050818103600083015261199e81611962565b9050919050565b7f4552433732313a20746f6b656e206e6f74206f776e6564206f7220646f206e6f60008201527f7420657869737400000000000000000000000000000000000000000000000000602082015250565b6000611a01602783610f87565b9150611a0c826119a5565b604082019050919050565b60006020820190508181036000830152611a30816119f4565b9050919050565b7f4e487b7100000000000000000000000000000000000000000000000000000000600052601160045260246000fd5b6000611a718261103c565b9150611a7c8361103c565b925082821015611a8f57611a8e611a37565b5b828203905092915050565b6000611aa58261103c565b9150611ab08361103c565b9250827fffffffffffffffffffffffffffffffffffffffffffffffffffffffffffffffff03821115611ae557611ae4611a37565b5b82820190509291505056fea2646970667358221220bebd96fa767e7917a1253d11d80e21b67e897585e983f2a2e150efe7ea95a69364736f6c634300080a0033",
  "immutableReferences": {},
  "source": "// SPDX-License-Identifier: MIT\npragma solidity ^0.8.0;\n\nimport \"./ERC721Metadata.sol\";\nimport \"./ERC721Enumerable.sol\";\n\ncontract ERC721Connector is ERC721Metadata, ERC721Enumerable {\n    // Construct ERC721Metadata for our main contract\n    constructor(string memory name, string memory symbol)\n        ERC721Metadata(name, symbol)\n    {}\n}\n",
  "sourcePath": "/Users/gabriel/Documents/Git/nft-marketplace/src/contracts/ERC721Connector.sol",
  "compiler": {
    "name": "solc",
    "version": "0.8.10+commit.fc410830.Emscripten.clang"
  },
  "schemaVersion": "3.4.3",
  "updatedAt": "2021-11-29T18:32:33.484Z",
  "devdoc": {
    "kind": "dev",
    "methods": {},
    "version": 1
  },
  "userdoc": {
    "kind": "user",
    "methods": {},
    "version": 1
  }
}