{
  "contractName": "ERC721Connector",
  "abi": [
    {
      "inputs": [
        {
          "internalType": "string",
          "name": "name",
          "type": "string"
        },
        {
          "internalType": "string",
          "name": "symbol",
          "type": "string"
        }
      ],
      "stateMutability": "nonpayable",
      "type": "constructor"
    },
    {
      "anonymous": false,
      "inputs": [
        {
          "indexed": true,
          "internalType": "address",
          "name": "from",
          "type": "address"
        },
        {
          "indexed": true,
          "internalType": "address",
          "name": "to",
          "type": "address"
        },
        {
          "indexed": true,
          "internalType": "uint256",
          "name": "tokenId",
          "type": "uint256"
        }
      ],
      "name": "Transfer",
      "type": "event"
    },
    {
      "inputs": [
        {
          "internalType": "address",
          "name": "_owner",
          "type": "address"
        }
      ],
      "name": "balanceOf",
      "outputs": [
        {
          "internalType": "uint256",
          "name": "",
          "type": "uint256"
        }
      ],
      "stateMutability": "view",
      "type": "function"
    },
    {
      "inputs": [],
      "name": "name",
      "outputs": [
        {
          "internalType": "string",
          "name": "",
          "type": "string"
        }
      ],
      "stateMutability": "view",
      "type": "function"
    },
    {
      "inputs": [
        {
          "internalType": "uint256",
          "name": "_id",
          "type": "uint256"
        }
      ],
      "name": "ownerOf",
      "outputs": [
        {
          "internalType": "address",
          "name": "",
          "type": "address"
        }
      ],
      "stateMutability": "view",
      "type": "function"
    },
    {
      "inputs": [],
      "name": "symbol",
      "outputs": [
        {
          "internalType": "string",
          "name": "",
          "type": "string"
        }
      ],
      "stateMutability": "view",
      "type": "function"
    },
    {
      "inputs": [],
      "name": "totalSupply",
      "outputs": [
        {
          "internalType": "uint256",
          "name": "",
          "type": "uint256"
        }
      ],
      "stateMutability": "view",
      "type": "function"
    }
  ],
  "bytecode": "0x60806040523480156200001157600080fd5b5060405162000a6238038062000a628339818101604052810190620000379190620002c2565b818181600090805190602001906200005192919062000075565b5080600190805190602001906200006a92919062000075565b5050505050620003ac565b828054620000839062000376565b90600052602060002090601f016020900481019282620000a75760008555620000f3565b82601f10620000c257805160ff1916838001178555620000f3565b82800160010185558215620000f3579182015b82811115620000f2578251825591602001919060010190620000d5565b5b50905062000102919062000106565b5090565b5b808211156200012157600081600090555060010162000107565b5090565b6000604051905090565b600080fd5b600080fd5b600080fd5b600080fd5b6000601f19601f8301169050919050565b7f4e487b7100000000000000000000000000000000000000000000000000000000600052604160045260246000fd5b6200018e8262000143565b810181811067ffffffffffffffff82111715620001b057620001af62000154565b5b80604052505050565b6000620001c562000125565b9050620001d3828262000183565b919050565b600067ffffffffffffffff821115620001f657620001f562000154565b5b620002018262000143565b9050602081019050919050565b60005b838110156200022e57808201518184015260208101905062000211565b838111156200023e576000848401525b50505050565b60006200025b6200025584620001d8565b620001b9565b9050828152602081018484840111156200027a57620002796200013e565b5b620002878482856200020e565b509392505050565b600082601f830112620002a757620002a662000139565b5b8151620002b984826020860162000244565b91505092915050565b60008060408385031215620002dc57620002db6200012f565b5b600083015167ffffffffffffffff811115620002fd57620002fc62000134565b5b6200030b858286016200028f565b925050602083015167ffffffffffffffff8111156200032f576200032e62000134565b5b6200033d858286016200028f565b9150509250929050565b7f4e487b7100000000000000000000000000000000000000000000000000000000600052602260045260246000fd5b600060028204905060018216806200038f57607f821691505b60208210811415620003a657620003a562000347565b5b50919050565b6106a680620003bc6000396000f3fe608060405234801561001057600080fd5b50600436106100575760003560e01c806306fdde031461005c57806318160ddd1461007a5780636352211e1461009857806370a08231146100c857806395d89b41146100f8575b600080fd5b610064610116565b6040516100719190610414565b60405180910390f35b6100826101a8565b60405161008f919061044f565b60405180910390f35b6100b260048036038101906100ad919061049b565b6101b5565b6040516100bf9190610509565b60405180910390f35b6100e260048036038101906100dd9190610550565b610267565b6040516100ef919061044f565b60405180910390f35b6101006102e9565b60405161010d9190610414565b60405180910390f35b606060008054610125906105ac565b80601f0160208091040260200160405190810160405280929190818152602001828054610151906105ac565b801561019e5780601f106101735761010080835404028352916020019161019e565b820191906000526020600020905b81548152906001019060200180831161018157829003601f168201915b5050505050905090565b6000600480549050905090565b6000806002600084815260200190815260200160002060009054906101000a900473ffffffffffffffffffffffffffffffffffffffff169050600073ffffffffffffffffffffffffffffffffffffffff168173ffffffffffffffffffffffffffffffffffffffff16141561025e576040517f08c379a000000000000000000000000000000000000000000000000000000000815260040161025590610650565b60405180910390fd5b80915050919050565b60008073ffffffffffffffffffffffffffffffffffffffff168273ffffffffffffffffffffffffffffffffffffffff1614156102a257600080fd5b600360008373ffffffffffffffffffffffffffffffffffffffff1673ffffffffffffffffffffffffffffffffffffffff168152602001908152602001600020549050919050565b6060600180546102f8906105ac565b80601f0160208091040260200160405190810160405280929190818152602001828054610324906105ac565b80156103715780601f1061034657610100808354040283529160200191610371565b820191906000526020600020905b81548152906001019060200180831161035457829003601f168201915b5050505050905090565b600081519050919050565b600082825260208201905092915050565b60005b838110156103b557808201518184015260208101905061039a565b838111156103c4576000848401525b50505050565b6000601f19601f8301169050919050565b60006103e68261037b565b6103f08185610386565b9350610400818560208601610397565b610409816103ca565b840191505092915050565b6000602082019050818103600083015261042e81846103db565b905092915050565b6000819050919050565b61044981610436565b82525050565b60006020820190506104646000830184610440565b92915050565b600080fd5b61047881610436565b811461048357600080fd5b50565b6000813590506104958161046f565b92915050565b6000602082840312156104b1576104b061046a565b5b60006104bf84828501610486565b91505092915050565b600073ffffffffffffffffffffffffffffffffffffffff82169050919050565b60006104f3826104c8565b9050919050565b610503816104e8565b82525050565b600060208201905061051e60008301846104fa565b92915050565b61052d816104e8565b811461053857600080fd5b50565b60008135905061054a81610524565b92915050565b6000602082840312156105665761056561046a565b5b60006105748482850161053b565b91505092915050565b7f4e487b7100000000000000000000000000000000000000000000000000000000600052602260045260246000fd5b600060028204905060018216806105c457607f821691505b602082108114156105d8576105d761057d565b5b50919050565b7f4552433732313a206f776e657220717565727920666f72206e6f6e2d6578697360008201527f74696e6720746f6b656e00000000000000000000000000000000000000000000602082015250565b600061063a602a83610386565b9150610645826105de565b604082019050919050565b600060208201905081810360008301526106698161062d565b905091905056fea264697066735822122026f527e784551903c3be1e95ec3f491b40165c463164df757ab1111a720d23e264736f6c634300080a0033",
  "immutableReferences": {},
  "source": "// SPDX-License-Identifier: MIT\npragma solidity ^0.8.0;\n\nimport \"./ERC721Metadata.sol\";\nimport \"./ERC721Enumerable.sol\";\n\ncontract ERC721Connector is ERC721Metadata, ERC721Enumerable {\n    // Construct ERC721Metadata for our main contract\n    constructor(string memory name, string memory symbol)\n        ERC721Metadata(name, symbol)\n    {}\n}\n",
  "sourcePath": "/Users/gabriel/Documents/Git/nft-marketplace/src/contracts/ERC721Connector.sol",
  "compiler": {
    "name": "solc",
    "version": "0.8.10+commit.fc410830.Emscripten.clang"
  },
  "schemaVersion": "3.4.3",
  "updatedAt": "2021-11-26T20:07:35.010Z",
  "devdoc": {
    "kind": "dev",
    "methods": {},
    "version": 1
  },
  "userdoc": {
    "kind": "user",
    "methods": {},
    "version": 1
  }
}