{
  "contractName": "ERC721Enumerable",
  "abi": [
    {
      "anonymous": false,
      "inputs": [
        {
          "indexed": true,
          "internalType": "address",
          "name": "owner",
          "type": "address"
        },
        {
          "indexed": true,
          "internalType": "address",
          "name": "approved",
          "type": "address"
        },
        {
          "indexed": true,
          "internalType": "uint256",
          "name": "tokenId",
          "type": "uint256"
        }
      ],
      "name": "Approval",
      "type": "event"
    },
    {
      "anonymous": false,
      "inputs": [
        {
          "indexed": true,
          "internalType": "address",
          "name": "owner",
          "type": "address"
        },
        {
          "indexed": true,
          "internalType": "address",
          "name": "operator",
          "type": "address"
        },
        {
          "indexed": true,
          "internalType": "bool",
          "name": "approved",
          "type": "bool"
        }
      ],
      "name": "ApprovalForAll",
      "type": "event"
    },
    {
      "anonymous": false,
      "inputs": [
        {
          "indexed": true,
          "internalType": "address",
          "name": "from",
          "type": "address"
        },
        {
          "indexed": true,
          "internalType": "address",
          "name": "to",
          "type": "address"
        },
        {
          "indexed": true,
          "internalType": "uint256",
          "name": "tokenId",
          "type": "uint256"
        }
      ],
      "name": "Transfer",
      "type": "event"
    },
    {
      "inputs": [
        {
          "internalType": "address",
          "name": "_to",
          "type": "address"
        },
        {
          "internalType": "uint256",
          "name": "_tokenId",
          "type": "uint256"
        }
      ],
      "name": "approve",
      "outputs": [],
      "stateMutability": "nonpayable",
      "type": "function"
    },
    {
      "inputs": [
        {
          "internalType": "address",
          "name": "_owner",
          "type": "address"
        }
      ],
      "name": "balanceOf",
      "outputs": [
        {
          "internalType": "uint256",
          "name": "",
          "type": "uint256"
        }
      ],
      "stateMutability": "view",
      "type": "function"
    },
    {
      "inputs": [
        {
          "internalType": "uint256",
          "name": "tokenId",
          "type": "uint256"
        }
      ],
      "name": "getApproved",
      "outputs": [
        {
          "internalType": "address",
          "name": "",
          "type": "address"
        }
      ],
      "stateMutability": "view",
      "type": "function"
    },
    {
      "inputs": [
        {
          "internalType": "address",
          "name": "owner",
          "type": "address"
        },
        {
          "internalType": "address",
          "name": "operator",
          "type": "address"
        }
      ],
      "name": "isApprovedForAll",
      "outputs": [
        {
          "internalType": "bool",
          "name": "",
          "type": "bool"
        }
      ],
      "stateMutability": "view",
      "type": "function"
    },
    {
      "inputs": [
        {
          "internalType": "uint256",
          "name": "_id",
          "type": "uint256"
        }
      ],
      "name": "ownerOf",
      "outputs": [
        {
          "internalType": "address",
          "name": "",
          "type": "address"
        }
      ],
      "stateMutability": "view",
      "type": "function"
    },
    {
      "inputs": [
        {
          "internalType": "address",
          "name": "operator",
          "type": "address"
        },
        {
          "internalType": "bool",
          "name": "approved",
          "type": "bool"
        }
      ],
      "name": "setApprovalForAll",
      "outputs": [],
      "stateMutability": "nonpayable",
      "type": "function"
    },
    {
      "inputs": [
        {
          "internalType": "address",
          "name": "_from",
          "type": "address"
        },
        {
          "internalType": "address",
          "name": "_to",
          "type": "address"
        },
        {
          "internalType": "uint256",
          "name": "_tokenId",
          "type": "uint256"
        }
      ],
      "name": "transferFrom",
      "outputs": [],
      "stateMutability": "nonpayable",
      "type": "function"
    },
    {
      "inputs": [
        {
          "internalType": "uint256",
          "name": "index",
          "type": "uint256"
        }
      ],
      "name": "tokenByIndex",
      "outputs": [
        {
          "internalType": "uint256",
          "name": "",
          "type": "uint256"
        }
      ],
      "stateMutability": "view",
      "type": "function"
    },
    {
      "inputs": [
        {
          "internalType": "address",
          "name": "owner",
          "type": "address"
        },
        {
          "internalType": "uint256",
          "name": "index",
          "type": "uint256"
        }
      ],
      "name": "tokenOfOwnerByIndex",
      "outputs": [
        {
          "internalType": "uint256",
          "name": "",
          "type": "uint256"
        }
      ],
      "stateMutability": "view",
      "type": "function"
    },
    {
      "inputs": [],
      "name": "totalSupply",
      "outputs": [
        {
          "internalType": "uint256",
          "name": "",
          "type": "uint256"
        }
      ],
      "stateMutability": "view",
      "type": "function"
    },
    {
      "inputs": [
        {
          "internalType": "address",
          "name": "account",
          "type": "address"
        }
      ],
      "name": "returnAllOwnerNfts",
      "outputs": [
        {
          "internalType": "uint256[]",
          "name": "",
          "type": "uint256[]"
        }
      ],
      "stateMutability": "view",
      "type": "function"
    }
  ],
  "bytecode": "0x608060405234801561001057600080fd5b50611890806100206000396000f3fe608060405234801561001057600080fd5b50600436106100a95760003560e01c80634f6ccce7116100715780634f6ccce7146101645780636352211e1461019457806370a08231146101c45780638d594232146101f4578063a22cb46514610224578063e985e9c514610240576100a9565b8063081812fc146100ae578063095ea7b3146100de57806318160ddd146100fa57806323b872dd146101185780632f745c5914610134575b600080fd5b6100c860048036038101906100c39190610e2c565b610270565b6040516100d59190610e9a565b60405180910390f35b6100f860048036038101906100f39190610ee1565b6102f5565b005b6101026104a2565b60405161010f9190610f30565b60405180910390f35b610132600480360381019061012d9190610f4b565b6104af565b005b61014e60048036038101906101499190610ee1565b6104d2565b60405161015b9190610f30565b60405180910390f35b61017e60048036038101906101799190610e2c565b6105bc565b60405161018b9190610f30565b60405180910390f35b6101ae60048036038101906101a99190610e2c565b61062d565b6040516101bb9190610e9a565b60405180910390f35b6101de60048036038101906101d99190610f9e565b6106de565b6040516101eb9190610f30565b60405180910390f35b61020e60048036038101906102099190610f9e565b610760565b60405161021b9190611089565b60405180910390f35b61023e600480360381019061023991906110e3565b6107f7565b005b61025a60048036038101906102559190611123565b6109cb565b6040516102679190611172565b60405180910390f35b600061027b82610a5f565b6102ba576040517f08c379a00000000000000000000000000000000000000000000000000000000081526004016102b190611210565b60405180910390fd5b6002600083815260200190815260200160002060009054906101000a900473ffffffffffffffffffffffffffffffffffffffff169050919050565b60006103008261062d565b90508073ffffffffffffffffffffffffffffffffffffffff168373ffffffffffffffffffffffffffffffffffffffff161415610371576040517f08c379a0000000000000000000000000000000000000000000000000000000008152600401610368906112a2565b60405180910390fd5b8073ffffffffffffffffffffffffffffffffffffffff163373ffffffffffffffffffffffffffffffffffffffff1614806103b157506103b081336109cb565b5b6103f0576040517f08c379a00000000000000000000000000000000000000000000000000000000081526004016103e790611334565b60405180910390fd5b826002600084815260200190815260200160002060006101000a81548173ffffffffffffffffffffffffffffffffffffffff021916908373ffffffffffffffffffffffffffffffffffffffff160217905550818373ffffffffffffffffffffffffffffffffffffffff168273ffffffffffffffffffffffffffffffffffffffff167f8c5be1e5ebec7d5bd14f71427d1e84f3dd0314c0f7b2291e5b200ac8c7c3b92560405160405180910390a4505050565b6000600480549050905090565b6104b93382610ad0565b6104c257600080fd5b6104cd838383610bae565b505050565b6000600660008473ffffffffffffffffffffffffffffffffffffffff1673ffffffffffffffffffffffffffffffffffffffff168152602001908152602001600020805490508210610558576040517f08c379a000000000000000000000000000000000000000000000000000000000815260040161054f906113a0565b60405180910390fd5b600660008473ffffffffffffffffffffffffffffffffffffffff1673ffffffffffffffffffffffffffffffffffffffff16815260200190815260200160002082815481106105a9576105a86113c0565b5b9060005260206000200154905092915050565b60006105c66104a2565b8210610607576040517f08c379a00000000000000000000000000000000000000000000000000000000081526004016105fe9061143b565b60405180910390fd5b6004828154811061061b5761061a6113c0565b5b90600052602060002001549050919050565b60008060008084815260200190815260200160002060009054906101000a900473ffffffffffffffffffffffffffffffffffffffff169050600073ffffffffffffffffffffffffffffffffffffffff168173ffffffffffffffffffffffffffffffffffffffff1614156106d5576040517f08c379a00000000000000000000000000000000000000000000000000000000081526004016106cc906114cd565b60405180910390fd5b80915050919050565b60008073ffffffffffffffffffffffffffffffffffffffff168273ffffffffffffffffffffffffffffffffffffffff16141561071957600080fd5b600160008373ffffffffffffffffffffffffffffffffffffffff1673ffffffffffffffffffffffffffffffffffffffff168152602001908152602001600020549050919050565b6060600660008373ffffffffffffffffffffffffffffffffffffffff1673ffffffffffffffffffffffffffffffffffffffff1681526020019081526020016000208054806020026020016040519081016040528092919081815260200182805480156107eb57602002820191906000526020600020905b8154815260200190600101908083116107d7575b50505050509050919050565b8173ffffffffffffffffffffffffffffffffffffffff163373ffffffffffffffffffffffffffffffffffffffff161415610866576040517f08c379a000000000000000000000000000000000000000000000000000000000815260040161085d90611539565b60405180910390fd5b600073ffffffffffffffffffffffffffffffffffffffff168273ffffffffffffffffffffffffffffffffffffffff1614156108d6576040517f08c379a00000000000000000000000000000000000000000000000000000000081526004016108cd906115cb565b60405180910390fd5b80600360003373ffffffffffffffffffffffffffffffffffffffff1673ffffffffffffffffffffffffffffffffffffffff16815260200190815260200160002060008473ffffffffffffffffffffffffffffffffffffffff1673ffffffffffffffffffffffffffffffffffffffff16815260200190815260200160002060006101000a81548160ff0219169083151502179055508015158273ffffffffffffffffffffffffffffffffffffffff163373ffffffffffffffffffffffffffffffffffffffff167f17307eab39ab6107e8899845ad3d59bd9653f200f220920489ca2b5937696c3160405160405180910390a45050565b6000600360008473ffffffffffffffffffffffffffffffffffffffff1673ffffffffffffffffffffffffffffffffffffffff16815260200190815260200160002060008373ffffffffffffffffffffffffffffffffffffffff1673ffffffffffffffffffffffffffffffffffffffff16815260200190815260200160002060009054906101000a900460ff16905092915050565b60008060008084815260200190815260200160002060009054906101000a900473ffffffffffffffffffffffffffffffffffffffff169050600073ffffffffffffffffffffffffffffffffffffffff168173ffffffffffffffffffffffffffffffffffffffff161415915050919050565b6000610adb82610a5f565b610b1a576040517f08c379a0000000000000000000000000000000000000000000000000000000008152600401610b119061165d565b60405180910390fd5b6000610b258361062d565b90508373ffffffffffffffffffffffffffffffffffffffff168173ffffffffffffffffffffffffffffffffffffffff161480610b9457508373ffffffffffffffffffffffffffffffffffffffff16610b7c84610270565b73ffffffffffffffffffffffffffffffffffffffff16145b80610ba55750610ba481856109cb565b5b91505092915050565b600073ffffffffffffffffffffffffffffffffffffffff168273ffffffffffffffffffffffffffffffffffffffff161415610c1e576040517f08c379a0000000000000000000000000000000000000000000000000000000008152600401610c15906116ef565b60405180910390fd5b8273ffffffffffffffffffffffffffffffffffffffff16610c3e8261062d565b73ffffffffffffffffffffffffffffffffffffffff1614610c94576040517f08c379a0000000000000000000000000000000000000000000000000000000008152600401610c8b90611781565b60405180910390fd5b60018060008573ffffffffffffffffffffffffffffffffffffffff1673ffffffffffffffffffffffffffffffffffffffff1681526020019081526020016000206000828254610ce391906117d0565b9250508190555060018060008473ffffffffffffffffffffffffffffffffffffffff1673ffffffffffffffffffffffffffffffffffffffff1681526020019081526020016000206000828254610d399190611804565b925050819055508160008083815260200190815260200160002060006101000a81548173ffffffffffffffffffffffffffffffffffffffff021916908373ffffffffffffffffffffffffffffffffffffffff160217905550808273ffffffffffffffffffffffffffffffffffffffff168473ffffffffffffffffffffffffffffffffffffffff167fddf252ad1be2c89b69c2b068fc378daa952ba7f163c4a11628f55a4df523b3ef60405160405180910390a4505050565b600080fd5b6000819050919050565b610e0981610df6565b8114610e1457600080fd5b50565b600081359050610e2681610e00565b92915050565b600060208284031215610e4257610e41610df1565b5b6000610e5084828501610e17565b91505092915050565b600073ffffffffffffffffffffffffffffffffffffffff82169050919050565b6000610e8482610e59565b9050919050565b610e9481610e79565b82525050565b6000602082019050610eaf6000830184610e8b565b92915050565b610ebe81610e79565b8114610ec957600080fd5b50565b600081359050610edb81610eb5565b92915050565b60008060408385031215610ef857610ef7610df1565b5b6000610f0685828601610ecc565b9250506020610f1785828601610e17565b9150509250929050565b610f2a81610df6565b82525050565b6000602082019050610f456000830184610f21565b92915050565b600080600060608486031215610f6457610f63610df1565b5b6000610f7286828701610ecc565b9350506020610f8386828701610ecc565b9250506040610f9486828701610e17565b9150509250925092565b600060208284031215610fb457610fb3610df1565b5b6000610fc284828501610ecc565b91505092915050565b600081519050919050565b600082825260208201905092915050565b6000819050602082019050919050565b61100081610df6565b82525050565b60006110128383610ff7565b60208301905092915050565b6000602082019050919050565b600061103682610fcb565b6110408185610fd6565b935061104b83610fe7565b8060005b8381101561107c5781516110638882611006565b975061106e8361101e565b92505060018101905061104f565b5085935050505092915050565b600060208201905081810360008301526110a3818461102b565b905092915050565b60008115159050919050565b6110c0816110ab565b81146110cb57600080fd5b50565b6000813590506110dd816110b7565b92915050565b600080604083850312156110fa576110f9610df1565b5b600061110885828601610ecc565b9250506020611119858286016110ce565b9150509250929050565b6000806040838503121561113a57611139610df1565b5b600061114885828601610ecc565b925050602061115985828601610ecc565b9150509250929050565b61116c816110ab565b82525050565b60006020820190506111876000830184611163565b92915050565b600082825260208201905092915050565b7f4552433732313a20617070726f76656420717565727920666f72206e6f6e657860008201527f697374656e7420746f6b656e0000000000000000000000000000000000000000602082015250565b60006111fa602c8361118d565b91506112058261119e565b604082019050919050565b60006020820190508181036000830152611229816111ed565b9050919050565b7f4552433732313a206572726f72206170726f76696e6720746f2063757272656e60008201527f74206f776e657200000000000000000000000000000000000000000000000000602082015250565b600061128c60278361118d565b915061129782611230565b604082019050919050565b600060208201905081810360008301526112bb8161127f565b9050919050565b7f4552433732313a2063757272656e742063616c6c6572206973206e6f7420746860008201527f65206f776e6572206f72206e6f7420617070726f76656420666f7220616c6c00602082015250565b600061131e603f8361118d565b9150611329826112c2565b604082019050919050565b6000602082019050818103600083015261134d81611311565b9050919050565b7f6f776e657220696e646578206973206f7574206f6620626f756e647300000000600082015250565b600061138a601c8361118d565b915061139582611354565b602082019050919050565b600060208201905081810360008301526113b98161137d565b9050919050565b7f4e487b7100000000000000000000000000000000000000000000000000000000600052603260045260246000fd5b7f676c6f62616c20696e646578206973206f7574206f6620626f756e6473000000600082015250565b6000611425601d8361118d565b9150611430826113ef565b602082019050919050565b6000602082019050818103600083015261145481611418565b9050919050565b7f4552433732313a206f776e657220717565727920666f72206e6f6e2d6578697360008201527f74696e6720746f6b656e00000000000000000000000000000000000000000000602082015250565b60006114b7602a8361118d565b91506114c28261145b565b604082019050919050565b600060208201905081810360008301526114e6816114aa565b9050919050565b7f4552433732313a20617070726f766520746f2063616c6c657200000000000000600082015250565b600061152360198361118d565b915061152e826114ed565b602082019050919050565b6000602082019050818103600083015261155281611516565b9050919050565b7f4552433732313a206f70657261746f722068617665207a65726f20616464726560008201527f7373000000000000000000000000000000000000000000000000000000000000602082015250565b60006115b560228361118d565b91506115c082611559565b604082019050919050565b600060208201905081810360008301526115e4816115a8565b9050919050565b7f4552433732313a206f70657261746f7220717565727920666f72206e6f6e657860008201527f697374656e7420746f6b656e0000000000000000000000000000000000000000602082015250565b6000611647602c8361118d565b9150611652826115eb565b604082019050919050565b600060208201905081810360008301526116768161163a565b9050919050565b7f4552433732313a206572726f72207768696c65207472616e73666572696e672060008201527f746f207a65726f20616464726573730000000000000000000000000000000000602082015250565b60006116d9602f8361118d565b91506116e48261167d565b604082019050919050565b60006020820190508181036000830152611708816116cc565b9050919050565b7f4552433732313a20746f6b656e206e6f74206f776e6564206f7220646f206e6f60008201527f7420657869737400000000000000000000000000000000000000000000000000602082015250565b600061176b60278361118d565b91506117768261170f565b604082019050919050565b6000602082019050818103600083015261179a8161175e565b9050919050565b7f4e487b7100000000000000000000000000000000000000000000000000000000600052601160045260246000fd5b60006117db82610df6565b91506117e683610df6565b9250828210156117f9576117f86117a1565b5b828203905092915050565b600061180f82610df6565b915061181a83610df6565b9250827fffffffffffffffffffffffffffffffffffffffffffffffffffffffffffffffff0382111561184f5761184e6117a1565b5b82820190509291505056fea26469706673582212206e6784c7ce8b722f208980eb48eeade66ef769e0f2aa8f20f47757a7ac8e9e5f64736f6c634300080a0033",
  "immutableReferences": {},
  "source": "// SPDX-License-Identifier: MIT\npragma solidity ^0.8.0;\nimport \"./ERC721.sol\";\n\ncontract ERC721Enumerable is ERC721 {\n    uint256[] private _allTokens;\n\n    // tokenId => index in _allTokens array\n    mapping(uint256 => uint256) private _allTokensIndex;\n\n    // owner => list of all owner token ids\n    mapping(address => uint256[]) private _ownedTokens;\n\n    // tokenId  => index of the owner tokens ids\n    mapping(uint256 => uint256) private _ownedTokensIndex;\n\n    function _mint(address receiver, uint256 tokenId)\n        internal\n        override(ERC721)\n    {\n        super._mint(receiver, tokenId);\n        _addTokensToAllTokensEnumeration(tokenId);\n        _addTokensToOwnerEnumeration(receiver, tokenId);\n    }\n\n    function _addTokensToAllTokensEnumeration(uint256 tokenId) private {\n        _allTokensIndex[tokenId] = _allTokens.length;\n        _allTokens.push(tokenId);\n    }\n\n    function _addTokensToOwnerEnumeration(address to, uint256 tokenId) private {\n        _ownedTokensIndex[tokenId] = _ownedTokens[to].length;\n        _ownedTokens[to].push(tokenId);\n    }\n\n    function tokenByIndex(uint256 index) public view returns (uint256) {\n        require(index < totalSupply(), \"global index is out of bounds\");\n        return _allTokens[index];\n    }\n\n    function tokenOfOwnerByIndex(address owner, uint256 index)\n        public\n        view\n        returns (uint256)\n    {\n        require(\n            index < _ownedTokens[owner].length,\n            \"owner index is out of bounds\"\n        );\n        return _ownedTokens[owner][index];\n    }\n\n    function totalSupply() public view returns (uint256) {\n        return _allTokens.length;\n    }\n\n    function returnAllOwnerNfts(address account)\n        public\n        view\n        returns (uint256[] memory)\n    {\n        return _ownedTokens[account];\n    }\n}\n",
  "sourcePath": "/Users/gabriel/Documents/Git/nft-marketplace/src/contracts/ERC721Enumerable.sol",
  "compiler": {
    "name": "solc",
    "version": "0.8.10+commit.fc410830.Emscripten.clang"
  },
  "schemaVersion": "3.4.3",
  "updatedAt": "2021-11-29T18:32:33.491Z",
  "devdoc": {
    "kind": "dev",
    "methods": {},
    "version": 1
  },
  "userdoc": {
    "kind": "user",
    "methods": {},
    "version": 1
  }
}