{
  "contractName": "ERC721",
  "abi": [
    {
      "anonymous": false,
      "inputs": [
        {
          "indexed": true,
          "internalType": "address",
          "name": "_owner",
          "type": "address"
        },
        {
          "indexed": true,
          "internalType": "address",
          "name": "_approved",
          "type": "address"
        },
        {
          "indexed": true,
          "internalType": "uint256",
          "name": "_tokenId",
          "type": "uint256"
        }
      ],
      "name": "Approval",
      "type": "event"
    },
    {
      "anonymous": false,
      "inputs": [
        {
          "indexed": true,
          "internalType": "address",
          "name": "_owner",
          "type": "address"
        },
        {
          "indexed": true,
          "internalType": "address",
          "name": "_operator",
          "type": "address"
        },
        {
          "indexed": false,
          "internalType": "bool",
          "name": "_approved",
          "type": "bool"
        }
      ],
      "name": "ApprovalForAll",
      "type": "event"
    },
    {
      "anonymous": false,
      "inputs": [
        {
          "indexed": true,
          "internalType": "address",
          "name": "_from",
          "type": "address"
        },
        {
          "indexed": true,
          "internalType": "address",
          "name": "_to",
          "type": "address"
        },
        {
          "indexed": true,
          "internalType": "uint256",
          "name": "_tokenId",
          "type": "uint256"
        }
      ],
      "name": "Transfer",
      "type": "event"
    },
    {
      "inputs": [
        {
          "internalType": "bytes4",
          "name": "interfaceId",
          "type": "bytes4"
        }
      ],
      "name": "supportsInterface",
      "outputs": [
        {
          "internalType": "bool",
          "name": "",
          "type": "bool"
        }
      ],
      "stateMutability": "view",
      "type": "function"
    },
    {
      "inputs": [
        {
          "internalType": "address",
          "name": "_owner",
          "type": "address"
        }
      ],
      "name": "balanceOf",
      "outputs": [
        {
          "internalType": "uint256",
          "name": "",
          "type": "uint256"
        }
      ],
      "stateMutability": "view",
      "type": "function"
    },
    {
      "inputs": [
        {
          "internalType": "uint256",
          "name": "_id",
          "type": "uint256"
        }
      ],
      "name": "ownerOf",
      "outputs": [
        {
          "internalType": "address",
          "name": "",
          "type": "address"
        }
      ],
      "stateMutability": "view",
      "type": "function"
    },
    {
      "inputs": [
        {
          "internalType": "address",
          "name": "_from",
          "type": "address"
        },
        {
          "internalType": "address",
          "name": "_to",
          "type": "address"
        },
        {
          "internalType": "uint256",
          "name": "_tokenId",
          "type": "uint256"
        }
      ],
      "name": "transferFrom",
      "outputs": [],
      "stateMutability": "nonpayable",
      "type": "function"
    },
    {
      "inputs": [
        {
          "internalType": "address",
          "name": "_to",
          "type": "address"
        },
        {
          "internalType": "uint256",
          "name": "_tokenId",
          "type": "uint256"
        }
      ],
      "name": "approve",
      "outputs": [],
      "stateMutability": "nonpayable",
      "type": "function"
    },
    {
      "inputs": [
        {
          "internalType": "address",
          "name": "owner",
          "type": "address"
        },
        {
          "internalType": "address",
          "name": "operator",
          "type": "address"
        }
      ],
      "name": "isApprovedForAll",
      "outputs": [
        {
          "internalType": "bool",
          "name": "",
          "type": "bool"
        }
      ],
      "stateMutability": "view",
      "type": "function"
    },
    {
      "inputs": [
        {
          "internalType": "address",
          "name": "operator",
          "type": "address"
        },
        {
          "internalType": "bool",
          "name": "approved",
          "type": "bool"
        }
      ],
      "name": "setApprovalForAll",
      "outputs": [],
      "stateMutability": "nonpayable",
      "type": "function"
    },
    {
      "inputs": [
        {
          "internalType": "uint256",
          "name": "tokenId",
          "type": "uint256"
        }
      ],
      "name": "getApproved",
      "outputs": [
        {
          "internalType": "address",
          "name": "",
          "type": "address"
        }
      ],
      "stateMutability": "view",
      "type": "function"
    }
  ],
  "bytecode": "0x60806040523480156200001157600080fd5b5060007f9d2e11cb7b07ae43fd737a030d1d2791771799a8a567e5c0717acee8c589328a905062000048816200004f60201b60201c565b5062000167565b63ffffffff60e01b817bffffffffffffffffffffffffffffffffffffffffffffffffffffffff19161415620000bb576040517f08c379a0000000000000000000000000000000000000000000000000000000008152600401620000b29062000145565b60405180910390fd5b50565b600082825260208201905092915050565b7f4552433136353a20496e76616c696420696e746572666163652072657175657360008201527f7400000000000000000000000000000000000000000000000000000000000000602082015250565b60006200012d602183620000be565b91506200013a82620000cf565b604082019050919050565b6000602082019050818103600083015262000160816200011e565b9050919050565b61150480620001776000396000f3fe608060405234801561001057600080fd5b50600436106100885760003560e01c80636352211e1161005b5780636352211e1461012557806370a0823114610155578063a22cb46514610185578063e985e9c5146101a157610088565b806301ffc9a71461008d578063081812fc146100bd578063095ea7b3146100ed57806323b872dd14610109575b600080fd5b6100a760048036038101906100a29190610c24565b6101d1565b6040516100b49190610c6c565b60405180910390f35b6100d760048036038101906100d29190610cbd565b610238565b6040516100e49190610d2b565b60405180910390f35b61010760048036038101906101029190610d72565b6102bd565b005b610123600480360381019061011e9190610db2565b61046a565b005b61013f600480360381019061013a9190610cbd565b61048d565b60405161014c9190610d2b565b60405180910390f35b61016f600480360381019061016a9190610e05565b61053f565b60405161017c9190610e41565b60405180910390f35b61019f600480360381019061019a9190610e88565b6105c1565b005b6101bb60048036038101906101b69190610ec8565b61079d565b6040516101c89190610c6c565b60405180910390f35b6000806000837bffffffffffffffffffffffffffffffffffffffffffffffffffffffff19167bffffffffffffffffffffffffffffffffffffffffffffffffffffffff1916815260200190815260200160002060009054906101000a900460ff169050919050565b600061024382610831565b610282576040517f08c379a000000000000000000000000000000000000000000000000000000000815260040161027990610f8b565b60405180910390fd5b6003600083815260200190815260200160002060009054906101000a900473ffffffffffffffffffffffffffffffffffffffff169050919050565b60006102c88261048d565b90508073ffffffffffffffffffffffffffffffffffffffff168373ffffffffffffffffffffffffffffffffffffffff161415610339576040517f08c379a00000000000000000000000000000000000000000000000000000000081526004016103309061101d565b60405180910390fd5b8073ffffffffffffffffffffffffffffffffffffffff163373ffffffffffffffffffffffffffffffffffffffff1614806103795750610378813361079d565b5b6103b8576040517f08c379a00000000000000000000000000000000000000000000000000000000081526004016103af906110af565b60405180910390fd5b826003600084815260200190815260200160002060006101000a81548173ffffffffffffffffffffffffffffffffffffffff021916908373ffffffffffffffffffffffffffffffffffffffff160217905550818373ffffffffffffffffffffffffffffffffffffffff168273ffffffffffffffffffffffffffffffffffffffff167f8c5be1e5ebec7d5bd14f71427d1e84f3dd0314c0f7b2291e5b200ac8c7c3b92560405160405180910390a4505050565b61047433826108a3565b61047d57600080fd5b610488838383610981565b505050565b6000806001600084815260200190815260200160002060009054906101000a900473ffffffffffffffffffffffffffffffffffffffff169050600073ffffffffffffffffffffffffffffffffffffffff168173ffffffffffffffffffffffffffffffffffffffff161415610536576040517f08c379a000000000000000000000000000000000000000000000000000000000815260040161052d90611141565b60405180910390fd5b80915050919050565b60008073ffffffffffffffffffffffffffffffffffffffff168273ffffffffffffffffffffffffffffffffffffffff16141561057a57600080fd5b600260008373ffffffffffffffffffffffffffffffffffffffff1673ffffffffffffffffffffffffffffffffffffffff168152602001908152602001600020549050919050565b8173ffffffffffffffffffffffffffffffffffffffff163373ffffffffffffffffffffffffffffffffffffffff161415610630576040517f08c379a0000000000000000000000000000000000000000000000000000000008152600401610627906111ad565b60405180910390fd5b600073ffffffffffffffffffffffffffffffffffffffff168273ffffffffffffffffffffffffffffffffffffffff1614156106a0576040517f08c379a00000000000000000000000000000000000000000000000000000000081526004016106979061123f565b60405180910390fd5b80600460003373ffffffffffffffffffffffffffffffffffffffff1673ffffffffffffffffffffffffffffffffffffffff16815260200190815260200160002060008473ffffffffffffffffffffffffffffffffffffffff1673ffffffffffffffffffffffffffffffffffffffff16815260200190815260200160002060006101000a81548160ff0219169083151502179055508173ffffffffffffffffffffffffffffffffffffffff163373ffffffffffffffffffffffffffffffffffffffff167f17307eab39ab6107e8899845ad3d59bd9653f200f220920489ca2b5937696c31836040516107919190610c6c565b60405180910390a35050565b6000600460008473ffffffffffffffffffffffffffffffffffffffff1673ffffffffffffffffffffffffffffffffffffffff16815260200190815260200160002060008373ffffffffffffffffffffffffffffffffffffffff1673ffffffffffffffffffffffffffffffffffffffff16815260200190815260200160002060009054906101000a900460ff16905092915050565b6000806001600084815260200190815260200160002060009054906101000a900473ffffffffffffffffffffffffffffffffffffffff169050600073ffffffffffffffffffffffffffffffffffffffff168173ffffffffffffffffffffffffffffffffffffffff161415915050919050565b60006108ae82610831565b6108ed576040517f08c379a00000000000000000000000000000000000000000000000000000000081526004016108e4906112d1565b60405180910390fd5b60006108f88361048d565b90508373ffffffffffffffffffffffffffffffffffffffff168173ffffffffffffffffffffffffffffffffffffffff16148061096757508373ffffffffffffffffffffffffffffffffffffffff1661094f84610238565b73ffffffffffffffffffffffffffffffffffffffff16145b806109785750610977818561079d565b5b91505092915050565b600073ffffffffffffffffffffffffffffffffffffffff168273ffffffffffffffffffffffffffffffffffffffff1614156109f1576040517f08c379a00000000000000000000000000000000000000000000000000000000081526004016109e890611363565b60405180910390fd5b8273ffffffffffffffffffffffffffffffffffffffff16610a118261048d565b73ffffffffffffffffffffffffffffffffffffffff1614610a67576040517f08c379a0000000000000000000000000000000000000000000000000000000008152600401610a5e906113f5565b60405180910390fd5b6001600260008573ffffffffffffffffffffffffffffffffffffffff1673ffffffffffffffffffffffffffffffffffffffff1681526020019081526020016000206000828254610ab79190611444565b925050819055506001600260008473ffffffffffffffffffffffffffffffffffffffff1673ffffffffffffffffffffffffffffffffffffffff1681526020019081526020016000206000828254610b0e9190611478565b92505081905550816001600083815260200190815260200160002060006101000a81548173ffffffffffffffffffffffffffffffffffffffff021916908373ffffffffffffffffffffffffffffffffffffffff160217905550808273ffffffffffffffffffffffffffffffffffffffff168473ffffffffffffffffffffffffffffffffffffffff167fddf252ad1be2c89b69c2b068fc378daa952ba7f163c4a11628f55a4df523b3ef60405160405180910390a4505050565b600080fd5b60007fffffffff0000000000000000000000000000000000000000000000000000000082169050919050565b610c0181610bcc565b8114610c0c57600080fd5b50565b600081359050610c1e81610bf8565b92915050565b600060208284031215610c3a57610c39610bc7565b5b6000610c4884828501610c0f565b91505092915050565b60008115159050919050565b610c6681610c51565b82525050565b6000602082019050610c816000830184610c5d565b92915050565b6000819050919050565b610c9a81610c87565b8114610ca557600080fd5b50565b600081359050610cb781610c91565b92915050565b600060208284031215610cd357610cd2610bc7565b5b6000610ce184828501610ca8565b91505092915050565b600073ffffffffffffffffffffffffffffffffffffffff82169050919050565b6000610d1582610cea565b9050919050565b610d2581610d0a565b82525050565b6000602082019050610d406000830184610d1c565b92915050565b610d4f81610d0a565b8114610d5a57600080fd5b50565b600081359050610d6c81610d46565b92915050565b60008060408385031215610d8957610d88610bc7565b5b6000610d9785828601610d5d565b9250506020610da885828601610ca8565b9150509250929050565b600080600060608486031215610dcb57610dca610bc7565b5b6000610dd986828701610d5d565b9350506020610dea86828701610d5d565b9250506040610dfb86828701610ca8565b9150509250925092565b600060208284031215610e1b57610e1a610bc7565b5b6000610e2984828501610d5d565b91505092915050565b610e3b81610c87565b82525050565b6000602082019050610e566000830184610e32565b92915050565b610e6581610c51565b8114610e7057600080fd5b50565b600081359050610e8281610e5c565b92915050565b60008060408385031215610e9f57610e9e610bc7565b5b6000610ead85828601610d5d565b9250506020610ebe85828601610e73565b9150509250929050565b60008060408385031215610edf57610ede610bc7565b5b6000610eed85828601610d5d565b9250506020610efe85828601610d5d565b9150509250929050565b600082825260208201905092915050565b7f4552433732313a20617070726f76656420717565727920666f72206e6f6e657860008201527f697374656e7420746f6b656e0000000000000000000000000000000000000000602082015250565b6000610f75602c83610f08565b9150610f8082610f19565b604082019050919050565b60006020820190508181036000830152610fa481610f68565b9050919050565b7f4552433732313a206572726f72206170726f76696e6720746f2063757272656e60008201527f74206f776e657200000000000000000000000000000000000000000000000000602082015250565b6000611007602783610f08565b915061101282610fab565b604082019050919050565b6000602082019050818103600083015261103681610ffa565b9050919050565b7f4552433732313a2063757272656e742063616c6c6572206973206e6f7420746860008201527f65206f776e6572206f72206e6f7420617070726f76656420666f7220616c6c00602082015250565b6000611099603f83610f08565b91506110a48261103d565b604082019050919050565b600060208201905081810360008301526110c88161108c565b9050919050565b7f4552433732313a206f776e657220717565727920666f72206e6f6e2d6578697360008201527f74696e6720746f6b656e00000000000000000000000000000000000000000000602082015250565b600061112b602a83610f08565b9150611136826110cf565b604082019050919050565b6000602082019050818103600083015261115a8161111e565b9050919050565b7f4552433732313a20617070726f766520746f2063616c6c657200000000000000600082015250565b6000611197601983610f08565b91506111a282611161565b602082019050919050565b600060208201905081810360008301526111c68161118a565b9050919050565b7f4552433732313a206f70657261746f722068617665207a65726f20616464726560008201527f7373000000000000000000000000000000000000000000000000000000000000602082015250565b6000611229602283610f08565b9150611234826111cd565b604082019050919050565b600060208201905081810360008301526112588161121c565b9050919050565b7f4552433732313a206f70657261746f7220717565727920666f72206e6f6e657860008201527f697374656e7420746f6b656e0000000000000000000000000000000000000000602082015250565b60006112bb602c83610f08565b91506112c68261125f565b604082019050919050565b600060208201905081810360008301526112ea816112ae565b9050919050565b7f4552433732313a206572726f72207768696c65207472616e73666572696e672060008201527f746f207a65726f20616464726573730000000000000000000000000000000000602082015250565b600061134d602f83610f08565b9150611358826112f1565b604082019050919050565b6000602082019050818103600083015261137c81611340565b9050919050565b7f4552433732313a20746f6b656e206e6f74206f776e6564206f7220646f206e6f60008201527f7420657869737400000000000000000000000000000000000000000000000000602082015250565b60006113df602783610f08565b91506113ea82611383565b604082019050919050565b6000602082019050818103600083015261140e816113d2565b9050919050565b7f4e487b7100000000000000000000000000000000000000000000000000000000600052601160045260246000fd5b600061144f82610c87565b915061145a83610c87565b92508282101561146d5761146c611415565b5b828203905092915050565b600061148382610c87565b915061148e83610c87565b9250827fffffffffffffffffffffffffffffffffffffffffffffffffffffffffffffffff038211156114c3576114c2611415565b5b82820190509291505056fea26469706673582212203aed937bdabbb4f2883272b82cc05c90e184009d48a21f5256ad5a0a1fc4f51964736f6c634300080a0033",
  "immutableReferences": {},
  "source": "// SPDX-License-Identifier: MIT\npragma solidity ^0.8.0;\n\nimport \"./ERC165.sol\";\nimport \"./interfaces/IERC721.sol\";\n\ncontract ERC721 is ERC165, IERC721 {\n    // token ID => owner\n    mapping(uint256 => address) private _tokenOwner;\n\n    // owner => how many tokens owned\n    mapping(address => uint256) private _ownedTokensCount;\n\n    // token ID => approved address\n    mapping(uint256 => address) private _tokenApprovals;\n\n    // owner => mapping of operator approvals\n    mapping(address => mapping(address => bool)) private _operatorApprovals;\n\n    function _exists(uint256 tokenId) internal view returns (bool) {\n        address owner = _tokenOwner[tokenId];\n        return owner != address(0);\n    }\n\n    function _mint(address receiver, uint256 tokenId) internal virtual {\n        require(receiver != address(0), \"ERC721: minting the zero address\");\n        require(!_exists(tokenId), \"ERC721: token already minted\");\n\n        _tokenOwner[tokenId] = receiver;\n        _ownedTokensCount[receiver] += 1;\n\n        emit Transfer(address(0), receiver, tokenId);\n    }\n\n    function _transferFrom(\n        address _from,\n        address _to,\n        uint256 _tokenId\n    ) internal {\n        require(\n            _to != address(0),\n            \"ERC721: error while transfering to zero address\"\n        );\n        require(\n            ownerOf(_tokenId) == _from,\n            \"ERC721: token not owned or do not exist\"\n        );\n\n        _ownedTokensCount[_from] -= 1;\n        _ownedTokensCount[_to] += 1;\n        _tokenOwner[_tokenId] = _to;\n\n        emit Transfer(_from, _to, _tokenId);\n    }\n\n    function _isApprovedOrOwner(address spender, uint256 tokenId)\n        internal\n        view\n        returns (bool)\n    {\n        require(\n            _exists(tokenId),\n            \"ERC721: operator query for nonexistent token\"\n        );\n\n        address owner = ownerOf(tokenId);\n        return (owner == spender ||\n            getApproved(tokenId) == spender ||\n            isApprovedForAll(owner, spender));\n    }\n\n    function balanceOf(address _owner) public view returns (uint256) {\n        require(_owner != address(0));\n        return _ownedTokensCount[_owner];\n    }\n\n    function ownerOf(uint256 _id) public view returns (address) {\n        address owner = _tokenOwner[_id];\n        require(\n            owner != address(0),\n            \"ERC721: owner query for non-existing token\"\n        );\n        return owner;\n    }\n\n    function transferFrom(\n        address _from,\n        address _to,\n        uint256 _tokenId\n    ) public virtual override {\n        require(_isApprovedOrOwner(msg.sender, _tokenId));\n        _transferFrom(_from, _to, _tokenId);\n    }\n\n    function approve(address _to, uint256 _tokenId) public override {\n        address owner = ownerOf(_tokenId);\n        require(_to != owner, \"ERC721: error aproving to current owner\");\n        require(\n            msg.sender == owner || isApprovedForAll(owner, msg.sender),\n            \"ERC721: current caller is not the owner or not approved for all\"\n        );\n\n        _tokenApprovals[_tokenId] = _to;\n        emit Approval(owner, _to, _tokenId);\n    }\n\n    function isApprovedForAll(address owner, address operator)\n        public\n        view\n        returns (bool)\n    {\n        return _operatorApprovals[owner][operator];\n    }\n\n    function setApprovalForAll(address operator, bool approved) public {\n        require(msg.sender != operator, \"ERC721: approve to caller\");\n        require(operator != address(0), \"ERC721: operator have zero address\");\n\n        _operatorApprovals[msg.sender][operator] = approved;\n        emit ApprovalForAll(msg.sender, operator, approved);\n    }\n\n    function getApproved(uint256 tokenId) public view returns (address) {\n        require(\n            _exists(tokenId),\n            \"ERC721: approved query for nonexistent token\"\n        );\n\n        return _tokenApprovals[tokenId];\n    }\n}\n",
  "sourcePath": "/Users/gabriel/Documents/Git/nft-marketplace/src/contracts/ERC721.sol",
  "compiler": {
    "name": "solc",
    "version": "0.8.10+commit.fc410830.Emscripten.clang"
  },
  "schemaVersion": "3.4.3",
  "updatedAt": "2021-12-06T22:50:04.875Z",
  "devdoc": {
    "kind": "dev",
    "methods": {},
    "version": 1
  },
  "userdoc": {
    "kind": "user",
    "methods": {},
    "version": 1
  }
}